:020000040800F2
:1000000058120220F9020008E99F00088533000811
:10001000050300083909000825AE000800000000AB
:1000200000000000000000000000000049A40008DB
:10003000D10B000800000000AFA10008D3A5000804
:100040001303000813030008130300081303000838
:100050001303000813030008130300081303000828
:100060001303000813030008130300081303000818
:100070001303000813030008130300081303000808
:1000800013030008130300081303000813030008F8
:100090003D090008130300081303000813030008B8
:1000A00013030008130300081303000813030008D8
:1000B000130300081303000831A600081303000807
:1000C00013030008130300081303000813030008B8
:1000D00013030008ADAD0008130300081303000864
:1000E0001303000813030008130300081303000898
:1000F0001303000865A60008130300081303000893
:100100001303000813030008130300081303000877
:100110001303000813030008130300081303000867
:100120001303000813030008130300081303000857
:100130001303000813030008130300081303000847
:100140001303000813030008130300081303000837
:100150001303000813030008130300081303000827
:100160001303000813030008130300081303000817
:100170001303000813030008130300080000000025
:1001800013030008130300081303000813030008F7
:1001900013030008130300081303000813030008E7
:1001A00013030008130300081303000813030008D7
:1001B00013030008130300081303000813030008C7
:1001C00013030008130300080000000013030008D5
:1001D00013030008130300081303000813030008A7
:1001E0001303000813030008130300081303000897
:1001F000130300081303000800F002F800F06DF884
:100200000AA090E8000C82448344AAF10107DA4571
:1002100001D100F062F8AFF2090EBAE80F0013F056
:10022000010F18BFFB1A43F0010318479C3E010061
:10023000BC3E01000A444FF0000C10F8013B13F0E3
:10024000070408BF10F8014B1D1108BF10F8015B2F
:10025000641E05D010F8016B641E01F8016BF9D122
:1002600013F0080F1EBF10F8014BAD1C0C1B09D179
:100270006D1E58BF01F801CBFAD505E014F8016BEB
:1002800001F8016B6D1EF9D59142D6D3704700007D
:100290000023002400250026103A28BF78C1FBD88F
:1002A000520728BF30C148BF0B607047642900F077
:1002B000A180752900F09E80782900F0D7806329FD
:1002C00000F0CE82732900F0D382002070471FB562
:1002D0000FF07AF81FBD10B510BD00F0FBFA114603
:1002E000FFF7F5FF0BF0A8FB00F019FB03B4FFF7D5
:1002F000F2FF03BC0AF045FF094880470948004760
:10030000FEE7FEE7FEE7FEE7FEE7FEE7FEE7FEE7C5
:10031000FEE7FEE704480549054A064B7047000022
:10032000D9A50008F9010008580C02205812022033
:10033000580E0220580E0220704700000FB40449E6
:1003400010B503AA029800F097FA10BC5DF814FBF0
:100350001000022070B5044685690068C10601D509
:10036000302600E02026C00707D070BDD4E9012167
:1003700030469047206A401C20626D1EF6D570BD45
:1003800070B5044685690078C00707D170BDD4E90F
:10039000012120209047206A401C20626D1EF6D566
:1003A00070BD70B50C460546012A05D02878800638
:1003B00000D5EA69002302E0012305E05B1C9342BB
:1003C00002D2E05C0028F9D1A869E618C01AA86139
:1003D000286A184428622846FFF7BCFF04E0D5E9E4
:1003E000012114F8010B9047B442F8D32846FFF7D7
:1003F000C7FF70BD2DE9F04106460024106875293D
:10040000314616A510D0AFF30080002802DA404232
:1004100013A507E031688A0701D512A502E0490754
:1004200004D511A5012401E0AFF3008000210A22C8
:1004300006F1240709E0B0FBF2FCB0FBF2F302FB8B
:100440001C00303078541846491C0028F3D123464C
:100450002A463046BDE8F04100F09FB90000000098
:100460002D0000002B0000002000000070B50446A5
:100470000D4621461068AFF300802188090502D59A
:100480000F4A7A4402E00E4A7A440E32002104F107
:10049000240305E000F00F060009965D5E54491C38
:1004A0000028F7D120780023000704D5702D02D052
:1004B00009B1022311322046BDE8704000F06DB949
:1004C000E43701002DE9F05F894604464FF0000A49
:1004D000DFF874B1FB44C0F820A02046E1688847EB
:1004E000002874D0252806D0D4E901219047206A3D
:1004F000401C2062F1E700265F462046E1688847FD
:100500002028054607DB312D05D2781910F8200C7C
:1005100008B10643F1E7B00701D526F00406C4F898
:100520001CA00027C4F818A02A2D09D028460AF0DC
:10053000DFFC38B304EB8708303DC8F8185019E0E9
:1005400059F8041B204604EB87029161E168884753
:10055000012F054618D1E069002820DA26F0200690
:100560001DE0D8F8180000EB800005EB40003038A3
:10057000C8F818002046E168884705460AF0B8FC2C
:100580000028EED1012F0AD02E2D08D12046E16897
:1005900088477F1C0546022F46F02006C4DBA06971
:1005A000002803DA404246F00106A061F00701D0BE
:1005B00026F010066C2D0BD0682D09D04C2D39D0AB
:1005C0006A2D35D0742D35D07A2D33D016E038E031
:1005D000E1682F4620468847B842054609D16C2F6E
:1005E00026D04FF48060E1680643204688470546E0
:1005F00004E06C2F1AD04FF4807006430DB3A5F1C0
:100600004100192802D8203546F400664A4629469A
:10061000204626604E46FFF749FE80B101280BD0E8
:10062000F61D26F0070000F1080956E74020E4E730
:100630008020D8E70020D6E706F104094DE72846D8
:1006400052E7206ABDE8F09FBA37010040EA010393
:1006500010B59B070FD1042A0DD310C808C9121F6B
:100660009C42F8D020BA19BA884201D9012010BDA5
:100670004FF0FF3010BD1AB1D30703D0521C07E072
:10068000002010BD10F8013B11F8014B1B1B07D1D6
:1006900010F8013B11F8014B1B1B01D1921EF1D147
:1006A000184610BD032A40F2308010F0030C00F011
:1006B000158011F8013BBCF1020F624498BF11F89C
:1006C00001CB00F8013B38BF11F8013BA2F1040255
:1006D00098BF00F801CB38BF00F8013B11F00303CD
:1006E00000F02580083AC0F0088051F8043B083A31
:1006F00051F804CBA0E80810F5E7121D5CBF51F8D3
:10070000043B40F8043BAFF30080D20724BF11F84C
:10071000013B11F801CB48BF11F8012B24BF00F8B1
:10072000013B00F801CB48BF00F8012B704710B522
:10073000203AC0F00B80B1E81850203AA0E81850D9
:10074000B1E81850A0E81850BFF4F5AF5FEA027C9A
:1007500024BFB1E81850A0E8185044BF18C918C009
:10076000BDE810405FEA827C24BF51F8043B40F8AA
:10077000043B08BF7047D20728BF31F8023B48BF8F
:1007800011F8012B28BF20F8023B48BF00F8012BCD
:10079000704770477047704770472DE9F0470D4626
:1007A00099469246044600F124080168880604D55B
:1007B000E06921F01001216000E00120A84201DD84
:1007C000471B00E00027A1697A1902EB0900081A0B
:1007D000A0612078C00602D42046FFF7BBFD0026AA
:1007E00008E0D4E901211AF806009047206A401C6D
:1007F000761C20624E45F4DB2078C0060AD52046E0
:10080000FFF7A8FD06E0D4E9012130209047206AD7
:10081000401C2062381EA7F10107F4DC07E0D4E990
:10082000012118F805009047206A401C2062281E0C
:10083000A5F10105F3DC2046FFF7A2FD20780006B4
:1008400002D50220BDE8F0870120FBE710B543691F
:1008500013B1AFF3008001E0FFF7A3FD012010BD4D
:10086000127800F124010A7000224A700122EDE79B
:1008700011684FF0FF32E9E7074B70B50D467B4436
:1008800000F011F80446284600F020F810B14FF0AF
:10089000FF3070BD204670BDCFAE000001694A1C1C
:1008A00002610878704700B58FB0CDE901310021B1
:1008B000059105497944CDE9031011466846FFF7D3
:1008C00001FE0FB000BD0000E5FFFFFF007B00F060
:1008D00080007047754600F02BF8AE46050069466B
:1008E000534620F00700854618B020B5FFF712FDEB
:1008F000BDE820404FF000064FF000074FF0000821
:100900004FF0000B21F00701AC46ACE8C009ACE8A1
:10091000C009ACE8C009ACE8C0098D46704710B505
:100920000446AFF300802046BDE81040FFF7DEBC70
:1009300000487047F80B0220FEE700004DF804ED78
:100940000E480A2200218DB000F076FC0098ADF828
:1009500024000398002818BF01208DF82600049871
:1009600005A98DF8270002460AA8FFF7E0FE044813
:1009700009A90AF047FD0DB05DF804FB780B0220D1
:10098000AC04022030B52F4891B0016841F00071ED
:100990000160006800F000700F902B48016841F082
:1009A00001010160006801250AA900F001000F9013
:1009B0004FF4C0500A9002200B90CDE90C50092052
:1009C0000E90224800F06CFE02221420114601F025
:1009D00077F9142001F067F91E4800241C490160D2
:1009E00000F14001016300F15C018461C461416375
:1009F0004FF42021C0E908458462C4628460C0E9E4
:100A00000341C90041610621416000F039FB18B182
:100A1000014611A0FFF792FC0E200394CDE9064594
:100A200004946946CDE9085005940A48009401945D
:100A3000029400F09BFA0748002100F0A5FC11B0D9
:100A400030BD000040380240303802400000024013
:100A500000640040780B022048414C5F43414E5FE8
:100A6000496E6974206661696C65312C72746E2000
:100A70003D202564200D0A0070B4BFF34F8FBFF3F3
:100A80006F8F1A4900200860194D296841F4003120
:100A90002960BFF34F8FBFF36F8F16490860BFF314
:100AA0004F8F081F006843F6FF76134AC0F34E3C91
:100AB000C0F3C90406EA4C11204641EA8073136072
:100AC000401EFAD2BCF1010CF4D2BFF34F8F28685C
:100AD00040F480302860BFF34F8FBFF36F8F07481B
:100AE000016841F00401016070BC704750EF00E004
:100AF00014ED00E084ED00E060EF00E09CEF00E02A
:100B0000D0F8A0204FF0FF33D0F8A4C052F8212035
:100B10002CF811300121C2F30742831883F8B41076
:100B20001146D0F8B0301847002808BF70472DE9AB
:100B3000F0074FF0FF08DDE9074C099F0E78ACEB9A
:100B400002056DB2002DCEBF06FA05F56D4226FAFC
:100B500005F505F0FF09CCBFCCF10805C2F1080589
:100B6000EDB2854288BF05460CEB0506CCF1080CBA
:100B700008FA06FA28FA0CFC4AEA0C0C94F800A0D1
:100B800029EA0C092A440AEA0C0CD2B2072A4CEAD8
:100B9000090C84F800C007D90022002B14BF4FF0C5
:100BA000FF3C4FF0010C614406F0FF0CBCF1070F55
:100BB00007D9002F4FF0000C14BF4FF0FF3601266D
:100BC0003444401B10F0FF00B8D1BDE8F007704777
:100BD0007047000010B5044601460BA0FFF7AEFBBE
:100BE000B4F1FF3F0CD01049B1F90000844204BFBA
:100BF000401E088000200D4A04EB440102F8310039
:100C00004FF0FF3010BD00003078333332302044D5
:100C1000656C416C61726D2E2068616E646C65203C
:100C20003D2025642E0D0A00F4010220BC0902209B
:100C3000B3F5804F30B418BF6FF0704104D040F866
:100C4000221030BC0020704750F82230DFF824C05A
:100C50008D8903EA0C03D1E900C44CEA041C8C68BA
:100C60008969240244EA05444CEA040C4CEA010177
:100C70001943E4E70000F0CF70B4D1F800C050F899
:100C80002C201B4BD1E903561A40D1E901433543CF
:100C90001C432C434D692C438D692C43CD692C4357
:100CA0000D6A2C434D6A2C438D6A2C43CD6A2C432C
:100CB0000D6B2C438D6B2C434D6B2C432243082B27
:100CC00008BF42F0400240F82C200A6BB2F5801FAA
:100CD00005D10A684AB1026842F4801202600A68CB
:100CE0001AB10268496B1143016070BC0020704763
:100CF0008004C0FF00EB820270B453684FF07E4660
:100D0000D1E900C48D8903F040434CEA041C8C688F
:100D1000240244EA05440D8A4CEA0404DFF834C096
:100D20000CEB05552C430D7D06EB05652C438D69B9
:100D30002C4323435360026812F4801F07D042689B
:100D4000098A22F470020CEB01511143416070BC1E
:100D5000002070470000F0FF4DF8044DD1E901324A
:100D60000C681343D1E903C24CEA02021A434B69EF
:100D700013438A69012C046843EA020CCB690A6AAE
:100D8000496A08D04CEA03031A4311436FF30E0477
:100D9000214301600BE024F4F8441A4321430A4341
:100DA000416802606FF30E014CEA010141605DF899
:100DB000044B00207047426942EA41014161002032
:100DC0007047F8B514460546D1E900026FF01F03DD
:100DD00010438A68C96803EB421242EA4121084382
:100DE0000090286100F07EFD0646A86910F0200FF3
:100DF0000ED0B4F1FF3F07D024B100F073FD801B8B
:100E0000A04201D90320F8BDA86910F0200FF0D14D
:100E10000020F8BD2DE9F001D1F804C06FF00F05F6
:100E20000B682C015B1E05EB0C1C43EA0C03D1F88C
:100E300008C04FEA0428270304EB0C2C43EA0C05F6
:100E40000B8A2604CC68012A826808EB034C8B8A43
:100E5000097E07EB035306EB01610DD0361306EB59
:100E600004342C4344EA0C0C4CEA0303194302F00B
:100E700070421143816012E0240322F47042A4F511
:100E80008054234322F470021A43C36845EA0C0CD1
:100E9000826003F070434CEA01011943C160BDE870
:100EA000F0010020704770B4034640690026428874
:100EB0009869B0F802C052B1002062459CBF042579
:100EC0005B6819D805EBC2041C5D032C02D870BC0A
:100ED000FF20704753F83240A46B24788C4204BF43
:100EE00070BC7047521C401C92B26245C0B2E9D936
:100EF000002E1CBF70BC7047FE2070BC70472DE9EF
:100F0000F0410646D0F83C01008800281CBF0024B0
:100F1000012722D0351995F8B4000F2817D0306872
:100F20000078A04213D095F8440138B9D6F838219A
:100F300012B121463046904785F8B470214695F8A5
:100F40004401401E85F8440130460AF0BFFF601C92
:100F5000C4B2802CDED3BDE8F081B6F93401FFF7CE
:100F600039FEA6F83401BDE8F08100000A7D0123B6
:100F700003FA02F203684048834218BF3F48D0F8A2
:100F8000003243F00103C0F80032D0F8003223F4FD
:100F90007C53C0F80032D0F80032D1F824C043EAC4
:100FA0000C23C0F80032D0F81C329343C0F81C3236
:100FB000CB69D3B9D0F80C329343C0F80C32B1F8F6
:100FC0000CC04B686CF31F43D1F814C000EBCC0C81
:100FD000CCF84032B1F808C00B686CF31F43D1F86D
:100FE00014C000EBCC0CCCF84432CB69012B1AD1E5
:100FF000D0F80C321343C0F80C32B1F800C04B6883
:101000006CF31F43D1F814C000EBCC0CCCF8403289
:10101000B1F808C0CB686CF31F43D1F814C000EBE3
:10102000CC0CCCF844328B69002BD0F804320CBFC6
:1010300093431343C0F804320B6923B9D0F8143238
:101040009343C0F814320B69012B04D1D0F8143249
:101050001343C0F81432096A012904D1D0F81C12D4
:101060001143C0F81C12D0F8001221F00101C0F8A1
:10107000001200207047000000340040006400406F
:101080002DE9F04104004FF0000704BF0120BDE846
:10109000F08194F83800002620B9204684F83960A1
:1010A00000F09EF8022084F838002068016821F0E2
:1010B000020101602068016841F00101016000F057
:1010C00011FC0546206840684FF0030810F0010F3E
:1010D00009D100F007FC401B0A2862D8206840684C
:1010E00010F0010FF5D02068416811F0010F69D0B0
:1010F000A169012901680CBF41F0800121F0800144
:101100000160E0690128206801680CBF41F04001DE
:1011100021F040010160206A0128206801680CBFAD
:1011200041F0200121F020010160606A012820685F
:1011300001680CBF41F0100121F010010160A06AAC
:101140000128206801680CBF41F0080121F0080166
:101150000160E06A0128206801680CBF41F00401C9
:1011600021F004010160D4E902010843D4E904122A
:10117000114308436168491E08432168C86120681B
:10118000016821F00101016000F0ACFB0546206818
:10119000406810F0010F10D000F0A4FB401B0A289B
:1011A00006D984F83880032084F83960BDE8F081DE
:1011B0002068406810F0010FEED12068406810F000
:1011C000010F00D037B1E663012084F83800002019
:1011D000BDE8F081042084F838000120BDE8F081EA
:1011E00012484DF804ED87B0016841F000710160CC
:1011F000006800F0007005900D48016841F00101A1
:1012000001600068012100F0010005904FF4C0501A
:1012100000900220CDE90101039009200490694665
:10122000044800F03DFA07B05DF804FB4038024086
:1012300030380240000002402DE9F047044690F8A3
:10124000390016460D46012804BF0220BDE8F0878C
:10125000012784F8397094F8380012280CBF322026
:10126000222084F8380000F03DFB81462068002DE4
:101270000CBFC068006910F0030F4FF0000869D080
:1012800021684FF4D87000EB0510095811F00402E2
:10129000616B8A602268616B125807BF520D0A6049
:1012A000D2084A6021680858616B00F00200C860EB
:1012B0004FF4DA70216800EB05100958626B01F0F9
:1012C0000F01116121680858616BC0F30720C861E4
:1012D0004FF4DC70216800EB05100958626B117542
:1012E00021680958626B090A517521680958626BB7
:1012F000090C917521680858616B000EC8754FF490
:10130000DE70216800EB05100958626B11762168C8
:101310000958626B090A517621680958626B090CF9
:10132000917621680858616B000EC87620202168EC
:10133000002D0CBFC860086194F83800322806BF41
:10134000122084F8380084F8387084F8398000203E
:10135000BDE8F087B6F1FF3F0DD02EB100F0C2FA24
:10136000A0EB0900B04206D9032084F8380084F8C5
:101370003980BDE8F0872068002D0CBFC068006987
:1013800010F0030FE6D07BE790F83820012A18BF51
:10139000122A24D190F83920012A20D0012280F885
:1013A000392090F83820122A0CBF3222222280F8ED
:1013B00038200023C3630268D2F814C04CF40F4CE9
:1013C000C2F814C080F839300029006841690CBFA8
:1013D00041F0020141F010014161002070470220FC
:1013E000704700002DE9F05F026804460E469068E1
:1013F00010F0806F01BF906810F0006F906810F0DF
:10140000805F00F0DA8094F83900012804BF0220E0
:10141000BDE8F09F012084F8390094F838002228B4
:101420000CBF3220122084F83800906810F0806FD2
:1014300018BF00257CD04FF4C07000EB0510115888
:1014400001F001011150216B8A68002A77D02368CE
:1014500053F800C04CEA0202D1F80CC049684CEACB
:10146000C10111431950216B0A7C02F00F020A617D
:1014700022684FF4C27101EB0511535823F00F039A
:10148000535022685358D4F830C0DCF810C043EAF7
:101490000C035350216B4FF4C47303EB05130A7D07
:1014A000D1F8151042EA01212268D150216B4FF486
:1014B000C67303EB05130A7ED1F8191042EA012125
:1014C0002268D15021680A5842F001020A5000F007
:1014D00009FADFF8FC80002DDFF8F8900746DFF806
:1014E000F8A04FF0000B35D02068012D806837D070
:1014F0003AEA000040D0B6F1FF3F35D026B100F007
:10150000F1F9C01BB0422FD9032084F8380033A171
:1015100040F287223FA084F839B0FEF70FFF032185
:1015200041A0FEF70BFF0320BDE8F09F00E006E0BE
:10153000906810F0006F14BF012502257BE7226838
:101540001358D1F80CC0098843EA0C0343EA41510F
:10155000115088E72068806838EA0000CBD10BE0A2
:1015600039EA0000C7D107E0EDB12068012D80689D
:101570001FD03AEA0000BED194F8380032280CBFE0
:101580002220012084F8380014A140F29B222AA0D6
:1015900084F839B0FEF7D2FE002123A0FEF7CEFE7C
:1015A0000020BDE8F09F2068806838EA0000A2D1E2
:1015B000E2E739EA00009ED1DEE7042084F8380033
:1015C000012122A0FEF7BAFE0120BDE8F09F000035
:1015D0000300000400030008000003102E2E5C48E6
:1015E000414C4C49425C53544D3332463778785F16
:1015F00048414C5F4472697665725C5372635C73F8
:10160000746D3332663778785F68616C5F63616EE2
:101610002E63000031CEC4BCFE3A257320D0D0A387
:10162000BA25640A0000000072657475726E20208D
:101630003D2025642E0D0A0032CEC4BCFE3A25732F
:1016400020CAFDA3BA25640A000000003373746D3C
:101650003332663778785F68616C5F63616E2E63E2
:10166000206C696E653A3637322048414C5F4552EE
:10167000524F52203D2025642E0D0A0090F835105F
:10168000022903D08021416501207047052180F89F
:1016900035100068016821F00101016000207047E9
:1016A0002DE9F84FDFF81C920022DFF814820F2793
:1016B00009F1040A4FF0010E0B680EFA02F52B40F7
:1016C000AB4240F0F780D1F804C0BCF1020F18BF64
:1016D000BCF1120F12D14FEAD20C00EB8C0CDCF8EB
:1016E00020605407E40E07FA04FB26EA0B06D1F843
:1016F00010B00BFA04F43443CCF8204006684FEAEB
:10170000420C91F804B003240BF0030B04FA0CF420
:10171000A6430BFA0CFB4BEA060606604E68012E48
:1017200018BF022E03D0112E18BF122E11D18668B9
:10173000D1F80CB0A6430BFA0CFB4BEA0606866008
:10174000466826EA05050E79C6F30016964035432D
:101750004560C56825EA04048D6805FA0CFC4CEA6E
:10176000040CC0F80CC0D1F804C01CF0805F7CD021
:10177000D8F800C04CF4804CC8F800C0D8F800C0BD
:101780000CF4804CCDF800C022F0030C0CF1804525
:1017900005F59835D5F808C89407240F07FA04F61C
:1017A0002CEA0606A0F1804CBCF5003C48D0A0F124
:1017B000804CBCF5013C08BF4FF0010C40D0A0F1BB
:1017C000804CBCF5023C08BF4FF0020C38D0A0F1B1
:1017D000804CBCF5033C08BF4FF0030C30D0A0F1A7
:1017E000804CBCF5043C08BF4FF0040C28D0A0F19D
:1017F000804CBCF5053C08BF4FF0050C20D0A0F193
:10180000804CBCF5063C08BF4FF0060C18D0A0F188
:10181000804CBCF5073C08BF4FF0070C10D0A0F17E
:10182000804CBCF5083C08BF4FF0080C08D0A0F174
:10183000804CBCF5093C0CBF4FF0090C4FF00A0C72
:101840000CFA04FC4CEA060CC5F808C8D9F800C02C
:101850004C682CEA030C14F4803F18BF4CEA030CCC
:10186000C9F800C0DAF800C000E023E04C682CEAB8
:10187000030C14F4003F18BF4CEA030CCAF800C074
:10188000114CD4F800C04D682CEA030C15F4801FED
:1018900018BF4CEA030CC4F800C00C4CD4F800C0CC
:1018A0004D682CEA030C15F4001F18BF4CEA030C1A
:1018B000C4F800C0521C102AFFF4FEAEBDE8F88F39
:1018C00044380240003C0140083C01400C3C0140CF
:1018D0000069084018BF01207047002A08BF0904AA
:1018E00081617047014800687047000004000220D1
:1018F00002480168491C0160704700000400022092
:10190000074810B5016841F400710160052000F03E
:1019100009FA0F2000F006F800F0C4F9002010BD0D
:10192000003C024010B5044607484FF47A72006844
:10193000B0FBF2F001F042FA00222146501E00F006
:10194000BFF9002010BD0000000002202DE9F05F6B
:10195000044690F8A000012804BF0220BDE8F09FD3
:101960000125022084F8A05084F8A10002EB820037
:1019700000EBC20004EB8003B1E8C11F3833A3E8D9
:10198000C11F91E8C111203983E8C111204608F038
:10199000D7F92068456284F8A150002084F8A0009F
:1019A000BDE8F09F002804BF0120704770B50446D1
:1019B00090F8A100002520B9204684F8A05000F03E
:1019C00077F8022084F8A1002068816921F0704135
:1019D0008161D4E901010843D4E9031211430143B1
:1019E0002068826911438161206882682F490A401A
:1019F0008260A08A020420688368D4F818C043EA91
:101A00000C031A4382602068C2680A40C260A08B3F
:101A100002042068C368D4F820C043EA0C031A43C8
:101A2000C260206802690A400261A08C020420683A
:101A30000369D4F828C043EA0C031A430261206802
:101A4000426911404161A08D010420684269236B05
:101A50001A431143416194F83500020294F83600AC
:101A600001042068C36A03F07F43C3622068C36A2D
:101A7000114394F834C043EA0C031943C16220684F
:101A8000416B41F0040141632068416B41F0020168
:101A900041632068816941F001018161C4F8A4506B
:101AA000012084F8A100002070BD000000F800F0C3
:101AB000354810B586B0016841F08061016000686A
:101AC00000F0806005903148016841F40001016038
:101AD000016801F400010591016841F00201016013
:101AE000016801F002010591016841F020010160E7
:101AF000016801F020010591016841F04001016099
:101B0000016801F040010591016841F08001016028
:101B1000016801F080010591016841F48071016064
:101B200000680324694600F480700590202000902E
:101B300001200190CDE902041548FFF7B1FD4FF4F3
:101B4000806000900220019000206946CDE90204E7
:101B50000E2004900F48FFF7A3FD4FF40C60009097
:101B60000D486946FFF79CFD4FF47E4000900B48FE
:101B70006946FFF795FD40F2F76000900848694616
:101B8000FFF78EFD06B010BD4438024030380240E9
:101B9000000402400014024000180240001C0240F1
:101BA0000020024070B5044690F8A0008C46012841
:101BB00004BF022070BD0125022084F8A05084F8E3
:101BC000A10003EB830000EBC30004EB800000F1F5
:101BD0003801C0F838C0006E6044C1E90102C86A2B
:101BE00010441A46C860204608F0AAF820684562EA
:101BF00084F8A150002084F8A00070BD70B50446A0
:101C000090F8A0008C46012804BF022070BD012579
:101C1000022084F8A05084F8A10003EB830000EBBD
:101C2000C300002604EB800000F138012046C1E922
:101C3000006CC1E90262C1E90AC21A4608F080F8E4
:101C40002068456284F8A150002084F8A06070BD2F
:101C5000134A41781160111D03780A1D002B04BF3F
:101C6000002008601AD043680B60017BC37A090723
:101C700041EA0361837A41EAC341437B41EA8341FC
:101C8000837B41EA4341C37B41EA0341437A41EA12
:101C90000321037A007841EA43010843106070474A
:101CA00098ED00E07047012200F01F0102FA01F1F7
:101CB0004009800000F1E020C0F8001170470000EA
:101CC000174B4DF8044D1B68C3F30223C3F1070CF7
:101CD000BCF1040F88BF4FF0040C1C1D072C34BF4F
:101CE0000023DB1E012404FA0CFCACF1010C0CEA0D
:101CF0000101994004FA03F35B1E1A4011430028C6
:101D00004FEA0111B8BF00F00F0000F1E020B4BFAE
:101D100080F8141D80F800145DF8044B7047000033
:101D20000CED00E0074A00F0070011684FF6FF03D2
:101D3000194041EA002040F0FD7040F080601060E2
:101D4000704700000CED00E01C4838B5016841F018
:101D50008051016000681A4C00F0805000902068AB
:101D600040F480302060FFF7BDFD0546606810F448
:101D7000803F09D1FFF7B6FD401BB0F57A7F14D83C
:101D8000606810F4803FF5D0206840F40030206097
:101D9000FFF7A8FD0546606810F4003F0BD1FFF780
:101DA000A1FD401BB0F57A7F01D9032038BD6068E2
:101DB00010F4003FF3D0002038BD0000403802404E
:101DC000007000402DE9F84F04460078DFF82C94AD
:101DD0004FF0000B10F0010F5D4610D0D9F8000055
:101DE00020F40000C9F80000D9F80000616B084336
:101DF000C9F80000606B002808BF4FF0010B206895
:101E0000FF4E10F4002F0FD03068E16B20F440102B
:101E100008433060E06BB0F5801F08BF4FF0010B46
:101E200002D0002808BF0125206810F4801F0FD0C1
:101E30003068216C20F4400008433060206CB0F51D
:101E4000800F08BF4FF0010B02D0002808BF01250A
:101E5000206810F0807F18BF4FF0010B10F0200FAA
:101E600071D0E848016841F0805101600068DFF8F6
:101E7000988300F080500090D8F8000040F4807003
:101E8000C8F80000FFF72EFD0746D8F8000010F450
:101E9000807F0AD1FFF726FDC01B642800F2308343
:101EA000D8F8000010F4807FF4D0DFF86083D8F811
:101EB000000010F4407031D0218E01F44071814255
:101EC0002CD0D8F80000D8F8001020F4407041F46D
:101ED0008031C8F80010D8F8001021F48031C8F81B
:101EE0000010C8F80000D8F8000010F0010F15D05D
:101EF000FFF7F8FC0746D8F8000010F0020F08BF03
:101F000041F2883A0AD1FFF7EDFCC01B504500F2C0
:101F1000F782D8F8000010F0020FF4D0206B4FF4D5
:101F2000407181431CBFD9F8000020F4F81000F084
:101F3000EE80C9F80000D8F80000218EC1F30B0133
:101F40000843C8F80000207810F0100F07D0306860
:101F500020F0807030603068A16B084330602088CA
:101F600010F4804FAA4805D00168626E21F4403118
:101F700011430160218811F4004F05D00168A26E61
:101F800021F4402111430160216811F4803F05D004
:101F90000168E26E21F4401111430160216811F4DF
:101FA000003F05D00168226F21F440011143016018
:101FB000217811F0400F05D00168626C21F0030117
:101FC00011430160217811F0800F05D00168A26CE7
:101FD00021F00C0111430160218811F4807F05D0AC
:101FE0000168E26C21F0300111430160218811F495
:101FF000007F05D00168226D21F0C001114301600E
:10200000218811F4806F05D00168626D21F4407160
:1020100011430160218811F4006F05D00168A26DA1
:1020200021F4406111430160218811F4805F05D0E3
:102030000168E26D21F4405111430160218811F4DF
:10204000005F05D00168226E21F440411143016018
:10205000216811F4800F05D00168A26F21F0806122
:1020600011430160216811F4001F0AD00168E26F7A
:1020700021F0006111430160E16FB1F1006F08BF11
:102080000125216811F0080F18BF012511F4802FD8
:1020900005D00168626F21F0407111430160216831
:1020A00011F4000F06D00168D4F8802021F080518F
:1020B00011430160216811F0806F06D00168D4F8E7
:1020C000842021F0005111430160206810F0006F5E
:1020D00006D03068D4F8881020F0007008433060D3
:1020E000206810F0805F06D03068D4F88C1020F0A3
:1020F000806008433060BBF1000F47F6C07A4FF4B0
:1021000040374FF070684FF0E0490ED109E0D9F840
:10211000001020F4407020F0704021F4F8110843C2
:1021200007E72068B0F1007F67D13A48006820F0E7
:10213000806138480160FFF7D5FB83463548006869
:1021400010F0006F0BD0FFF7CDFBA0EB0B00642865
:1021500000F2D6812F48006810F0006FF3D120788C
:1021600010F0010F2C482DD0616B59BB016897FA14
:10217000A7F201F44031B2FA82F2D140026898FA33
:10218000A8F39AFAAAFC02F07062B3FA83F3BCFADD
:102190008CFCDA40636803FA0CF397FAA7FCBCFAEC
:1021A0008CFC01FA0CF1194398FAA8F3B3FA83F303
:1021B0009A4099FAA9F30A43A168B3FA83F39940C4
:1021C00011430160216811F4002F03D0E26BB2F5D6
:1021D000801F06D011F4801F49D0216CB1F5800F0B
:1021E00045D1016897FAA7F201F44031B2FA82F2C0
:1021F000D140026802F0E04210E0A5E00838024059
:102200008C38024040380240007000407038024074
:1022100090380240003802408438024099FAA9F30D
:102220009AFAAAFCB3FA83F3BCFA8CFCDA4063682E
:1022300003FA0CF397FAA7FCBCFA8CFC01FA0CF138
:1022400098FAA8FC1943E368BCFA8CFC03FA0CF377
:10225000194399FAA9F3B3FA83F39A401143016041
:102260003168626A21F01F01521E114331602168FA
:1022700011F0807F2ED0016898FAA8F201F0706109
:10228000B2FA82F2D140026899FAA9F39AFAAAFC4A
:1022900002F0E042B3FA83F3BCFA8CFCDA406368E4
:1022A00097FAA7FBBBFA8BFB03FA0CF3D4F810C028
:1022B0000CFA0BFC43EA0C0398FAA8FCBCFA8CFC61
:1022C00001FA0CF1194399FAA9F3B3FA83F39A408E
:1022D00011430160216811F0007F1CD09AFAAAF224
:1022E000616897FAA7F3B2FA82F2B3FA83F301FABC
:1022F00002F22169994098FAA8F31143E268B3FA0F
:1023000083F39A4099FAA9F31143A268B3FA83F3CD
:102310009A40114301607F48006840F080617D4829
:102320000160FFF7DFFA83467A48006810F0006F1B
:102330000AD1FFF7D7FAA0EB0B0064287DD87548C7
:10234000006810F0006FF4D0002D77D0714D286830
:1023500020F080502860FFF7C5FA8346286810F007
:10236000005F09D0FFF7BEFAA0EB0B00642864D829
:10237000286810F0005FF5D12068DFF89CC110F4E8
:10238000002F01D0E16B21B110F4801F38D0206CF8
:10239000B0BBDCF8000097FAA7F100F44030B1FAC6
:1023A00081F1C840DCF8001099FAA9F29AFAAAF370
:1023B00001F0E041B2FA82F2B3FA83F3D1406269EC
:1023C0009A4097FAA7F3B3FA83F3984098FAA8F3E0
:1023D0001043A269B3FA83F39A40104399FAA9F221
:1023E000B2FA82F291400843CCF8000030686FF0F6
:1023F000FF02A16A20F4F85002EB0121084330608B
:10240000206810F4001F34D0E06FB0F1006F30D1BD
:10241000DCF8000098FAA8F100F07060B1FA81F1E0
:10242000C840DCF8001099FAA9F29AFAAAF301F070
:10243000E041B2FA82F2D14001E061E067E0626916
:10244000B3FA83F397FAA7FB9A40236ABBFA8BFB94
:1024500003FA0BF31A4398FAA8F3B3FA83F39840FC
:10246000104399FAA9F2B2FA82F291400843CCF8EB
:102470000000207810F0080F32D0DCF8000098FA45
:10248000A8F100F07060B1FA81F1C840DCF80010EA
:1024900097FAA7F29AFAAAF301F44031B2FA82F25B
:1024A000B3FA83F3D14062699A4097FAA7F3B3FA7B
:1024B00083F39940114398FAA8F2B2FA82F290405D
:1024C00099FAA9F20843E169B2FA82F2914008430D
:1024D000CCF800003068E16A20F4403008433060F6
:1024E000286840F080502860FFF7FCF9044628680F
:1024F00010F0005F0BD1FFF7F5F9001B642802D93B
:102500000320BDE8F88F286810F0005FF3D00020AA
:10251000BDE8F88F00380240883802402DE9F047C6
:10252000DFF8688104460D46D8F8000000F00F007F
:10253000A8420CD2D8F8000020F00F002843C8F8B9
:102540000000D8F8000000F00F00A84270D12078F9
:102550004F4F10F0020F05D03868A16820F0F0004E
:1025600008433860207810F0010F4ED06068494968
:10257000012820D00968022822D011F0020F57D07C
:10258000396821F0030108433860FFF7ABF90646CC
:10259000606841F28839012816D00228386800F0B6
:1025A0000C0021D0F8B1FFF79DF9801B484528D9D0
:1025B0000320BDE8F087096811F4003FE0D137E05F
:1025C00011F0007FDCD133E0386800F00C00042803
:1025D0001BD0FFF787F9801B4845E9D8386800F021
:1025E0000C000428F5D110E008280ED0FFF77AF986
:1025F000801B4845DCD8386800F00C000828F5D16D
:1026000003E0386810F00C0FCDD1D8F8000000F0CE
:102610000F00A8420FD9D8F8000020F00F0028437F
:10262000C8F80000D8F8000000F00F00A84202D05F
:102630000120BDE8F087207810F0040F05D038683D
:10264000E16820F4E05008433860207810F0080F6B
:1026500006D03868216920F4604040EAC100386043
:1026600000F04EF83968F02292FAA2F201F0F0017F
:10267000B2FA82F2D140084A515CC840074908606A
:102680000F20FFF74FF90020BDE8F087003C024023
:10269000083802400038024052F4000800000220CE
:1026A00008480949006809684FF4E05292FAA2F21A
:1026B00001F4E051B2FA82F2D140044A515CC840C0
:1026C00070470000000002200838024062F4000851
:1026D00008480949006809684FF4604292FAA2F27A
:1026E00001F46041B2FA82F2D140044A515CC84020
:1026F00070470000000002200838024062F4000821
:102700002148006810F00C01204808BF7047DFF82E
:1027100080C0042904BF60467047082918BF70476D
:102720004DF8044D1B4A1168136801F03F0113F482
:10273000800F47F6C0730BD0BCFBF1F01168194055
:1027400093FAA3F3B3FA83F3D94000FB01F00AE054
:10275000B0FBF1F01168194093FAA3F3B3FA83F3D5
:10276000D94000FB01F011684FF440325DF8044B92
:1027700092FAA2F201F44031B2FA82F2D140491C3D
:102780004900B0FBF1F07047083802400024F40023
:1027900040787D01043802402DE9F84FDFF8A88326
:1027A00004460078A8F1040710F0010FA7F1040512
:1027B0005AD0D8F8000000F00C00042809D0D8F84E
:1027C000000000F00C0008280CD1386810F4800FCD
:1027D00008D0286810F4003F46D06068002800F058
:1027E000AF8141E06068B0F5803F04BF286840F4E5
:1027F00080300AD010B1B0F5A02F11D0286820F495
:1028000080302860286820F4802028606068D0B17B
:10281000FFF768F80646286810F4003F08D023E068
:10282000286840F480202860286840F48030ECE775
:10283000FFF758F8801B642800F22581286810F4FF
:10284000003FF5D010E0FFF74DF80646286810F479
:10285000003F09D0FFF746F8801B642800F213817F
:10286000286810F4003FF5D1207810F0020F50D006
:10287000D8F800004FF0F80910F00C0F18D0D8F875
:10288000000000F00C00082804BF386810F4800F26
:102890000ED0E0680028286828D040F001002860A9
:1028A000FFF720F80646286810F0020F09D011E063
:1028B000286810F0020F1CBFE06801280AD000F061
:1028C0003FB9FFF70FF8801B02287DD8286810F069
:1028D000020FF6D0286899FAA9F22169B2FA82F2B9
:1028E00020F0F80091400843286012E020F0010039
:1028F0002860FEF7F7FF0646286810F0020F08D0A0
:10290000FEF7F0FF801B02285ED8286810F0020F47
:10291000F6D1207810F0080F33D0DFF830926069DC
:102920000028D9F8000016D040F00100C9F80000D6
:10293000FEF7D8FF0646D9F8000010F0020F20D1AC
:10294000FEF7D0FF801B02283ED8D9F8000010F017
:10295000020FF5D015E020F00100C9F80000FEF7E5
:10296000C1FF0646D9F8000010F0020F09D0FEF7AB
:10297000B9FF801B022827D8D9F8000010F0020FF9
:10298000F5D1207810F0040F63D07148016841F050
:102990008051016000686F4E00F0805000903068F8
:1029A00040F480703060FEF79DFF8146306810F47F
:1029B000807F0BD1FEF796FFA0EB0900642862D858
:1029C000306810F4807F00E05DE0F3D0A068624ED4
:1029D000012804BF306840F0010009D008B1052883
:1029E00013D0306820F001003060306820F004001F
:1029F0003060A06841F2883AD0B1FEF773FF81469B
:102A0000306810F0020F08D023E0306840F0040076
:102A10003060306840F00100EAE7FEF763FFA0EBAA
:102A2000090050452FD8306810F0020FF5D010E0A3
:102A3000FEF758FF8146306810F0020F09D0FEF70C
:102A400051FFA0EB090050451DD8306810F0020F6F
:102A5000F5D1A069E8B3D8F8001001F00C010829FD
:102A60006ED00228286820F0807028600ED0FEF713
:102A700039FF0446286810F0007F5ED0FEF732FF71
:102A8000001B022855D90320BDE8F88FFEF72AFF66
:102A90000646286810F0007F08D0FEF723FF801B51
:102AA0000228F0D8286810F0007FF6D1D4E9070199
:102AB00047F6C0724FF0FF3392FAA2F20843616A00
:102AC000B2FA82F29140A26A03EB52024FF4403311
:102AD00000E032E093FAA3F3B3FA83F39A40114390
:102AE0004FF070620843E16A92FAA2F2B2FA82F2FF
:102AF00091404FF0E0420843216B92FAA2F2B2FA01
:102B000082F2914008433860286840F08070286065
:102B1000FEF7E8FE0446286810F0007F0DD1FEF7AE
:102B2000E1FE001B0228AED8286810F0007FF6D026
:102B300003E0286810F0007FA0D10020BDE8F88FE6
:102B40000120BDE8F88F00000838024074380240C8
:102B5000403802400070004070380240002804BF36
:102B60000120704770B5044690F82C000D4628B936
:102B7000002084F82D00204600F012F8022084F88E
:102B80002C002068211DFEF7E7F8D4E90002294651
:102B9000FEF740F9012084F82C00002070BD0000F1
:102BA00030484DF804ED87B0016841F00101016043
:102BB000006800F0010005902B48016841F0040115
:102BC0000160016801F004010591016841F008010C
:102BD0000160016801F008010591016841F01001F0
:102BE0000160016801F010010591016841F02001C8
:102BF0000160016801F020010591016841F0400188
:102C000001600068694600F0400005900D200090CA
:102C10000220019001200290032003900C200490D8
:102C20001248FEF73DFD4CF20370009010486946D3
:102C3000FEF736FD4FF6837000900E486946FEF7AA
:102C40002FFD4FF63F0000900B486946FEF728FD28
:102C500048F23710009009486946FEF721FD07B099
:102C60005DF804FB3838024030380240000802406A
:102C7000000C024000100240001402400018024004
:102C800010B5044690F82C00022808BF10BD0220A1
:102C900084F82C002068FEF78EF8012084F82C00C0
:102CA000002010BD70B5044690F82C000D46022897
:102CB00008BF70BD022084F82C002068FEF781F860
:102CC000286802280CBF0520012084F82C00002071
:102CD00070BD002804BF0120704770B5044690F80D
:102CE000450015460E4628B9002084F844002046C9
:102CF00000F01AF8206804F10801FDF7BDFFA26892
:102D000031462068FDF7F6FFE36A2946D4E901025F
:102D1000FDF78EFFA168206850F8212042F00102E3
:102D200040F82120002070BD1A484DF804ED87B00E
:102D3000016841F001010160006800F001000590A8
:102D40001548016841F008010160016801F00801BF
:102D50000591016841F0100101600068694600F0CA
:102D6000100005904EF2B3700090022001900120F7
:102D70000290032003900C2004900848FEF790FC7A
:102D80004FF68070009006486946FEF789FC07B050
:102D90005DF804FB3838024030380240000C024035
:102DA000001002404FF0E021042808690CBF40F0F9
:102DB000040020F00400086170470000401EB0F1DC
:102DC000807F24BF012070474FF0E0214861F02050
:102DD000044A82F8140D0020886107200861002051
:102DE000704700000FE000E070477047002804BF04
:102DF0000120704710B5044690F83900002804BF40
:102E0000204600F00CF8022084F839002068211DCB
:102E100007F054FC012084F83900002010BD7047F1
:102E20000168CA6842F00102CA600068016841F0A6
:102E30000101016000207047704770B504460068CA
:102E400001694FF0000511F0020F1CBFC16811F0BD
:102E5000020F13D06FF0020101610120207620687B
:102E6000806910F0030F204602D0FFF7E5FF04E071
:102E700000F0A6F8204600F0A4F825762068016945
:102E800011F0040F1CBFC16811F0040F13D06FF0D4
:102E900004010161022020762068806910F4407FDF
:102EA000204602D0FFF7C8FF04E000F089F8204672
:102EB00000F087F825762068016911F0080F1CBF23
:102EC000C16811F0080F13D06FF0080101610420F0
:102ED00020762068C06910F0030F204602D0FFF76B
:102EE000ABFF04E000F06CF8204600F06AF82576AD
:102EF0002068016911F0100F1CBFC16811F0100F9C
:102F000013D06FF010010161082020762068C0699D
:102F100010F4407F204602D0FFF78EFF04E000F05F
:102F20004FF8204600F04DF825762068016911F031
:102F3000010F1CBFC16811F0010F05D06FF0010136
:102F40000161204600F03EF8206801696FF08005BD
:102F500011F0800F1CBFC16811F0800F03D0056114
:102F60002046FFF741FF2068016911F4807F1CBFF4
:102F7000C16811F0800F03D005612046FFF734FFD0
:102F80002068016911F0400F1CBFC16811F0400FAB
:102F900005D06FF040010161204600F014F8206870
:102FA000016911F0200F1ABFC16811F0200F70BD28
:102FB0006FF0200101612046BDE87040FFF715BFAA
:102FC00070477047704770477047000070B50168E0
:102FD0000446C8690A688B6810F00F0F4FF020058F
:102FE00051D040F2011C13EA0C0F7DD010F0010FFC
:102FF00018BF12F4807F07D04FF0010CC1F820C039
:10300000E16E41F00101E16610F0020F18BF13F00C
:10301000010F08D0D4F800C00221CCF82010E16ED6
:1030200041F00401E16610F0040F18BF13F0010F26
:1030300008D0D4F800C00421CCF82010E16E41F093
:103040000201E16610F0080F0CD002F0200103F03D
:103050000103194306D0236808211962E16E41F08B
:103060000801E166E16E002908BF70BD10F0200F75
:103070001EBF12F0200F204607F0CBFCE06E10F0D0
:10308000080F10D10AE010F0200F18BF12F0200F27
:1030900039D02046BDE8704007F0BBBC206880688E
:1030A00010F0400F29D02068016821F49071016070
:1030B0002068816821F00101816084F86A502068ED
:1030C000816811F0400F14D0816821F040018160C7
:1030D000606E70B12D490165606EFEF7CFFA002871
:1030E00008BF70BD606E00E00DE0016DBDE870408E
:1030F00008472046FFF768FF70BD2046FFF764FFD2
:103100000020E06670BD10F0800F18BF12F0800F35
:103110002CD094F86900212818BF70BDB4F8520073
:1031200090B1A068B0F5805F04BF20690028E06C12
:1031300014D0411CE164216800788862B4F8520020
:10314000401EA4F8520070BD086820F0800008609E
:103150002068016841F04001016070BD0088C0F343
:1031600008008862E06C801CE064E7E710F0400F24
:1031700014BF12F0400F70BD20460A6822F04002D2
:103180000A6084F8695000F0FCF870BDFFA90008DF
:10319000002804BF0120704710B5044690F869006C
:1031A00028B9002084F86800204600F029F824207F
:1031B00084F869002068016821F00101016020465F
:1031C00007F066FC012808BF10BD606A00281CBF1C
:1031D000204607F077FB2068416821F49041416068
:1031E0002068816821F02A0181602068016841F02F
:1031F000010101602046BDE8104007F0D0BB00008F
:1032000030B50446006887B0A0F18041B1F588313F
:103210001CBF07B030BD1B48016841F001010160CF
:10322000006800F0010005901748016841F01001A6
:10323000016000680121154D00F0100005904FF469
:10324000007000900220CDE901010390072069463B
:1032500004902846FEF724FA28156946009028466F
:10326000FEF71EFA2068016841F020010160252068
:10327000FEF719FD032225201146FEF721FD07B0B8
:1032800030BD0000303802404438024000000240A7
:103290002DE9F84F044690F86A00984616460D4608
:1032A00020286AD1002D12BF002E0120BDE8F88F22
:1032B00094F86800012860D0012084F868004FF07D
:1032C0000009C4F86C90222084F86A00FEF70AFB1B
:1032D000A4F858608246A4F85A60FF21A068B0F5AF
:1032E000805F05D07F2250B1B0F1805F0CD012E03A
:1032F0002069002808BF40F2FF1002D109E02069D0
:10330000E8B9A4F85C1006E02069002818BF3F2047
:1033100015D0A4F85C00B4F85C60F7B2B4F85A00B9
:1033200000225346401EA4F85A0020212046CDF822
:10333000008007F001FD28B10320BDE8F88FA4F854
:103340005C20E8E7A068B0F5805F04BF2069002832
:103350002068406A19BF384005F8010B304025F855
:10336000020BB4F85A000028D8D1202084F86A0053
:10337000002084F86890BDE8F88F0220BDE8F88F3F
:1033800070477047FEE700001B4870B586B00168C3
:1033900041F001010160016801F00101059101683E
:1033A00041F004010160016801F004010591016828
:1033B00041F080010160006803250026694600F0A5
:1033C0008000059002200124CDE902050B48CDE9DB
:1033D0000046FEF765F960036946CDE90006084836
:1033E000CDE90245FEF75CF90C20009005486946DE
:1033F000FEF756F906B070BD3038024000000240BA
:1034000000080240001C02402DE9F041104E074622
:10341000104800243188006820B13846BDE8F041EA
:1034200006F0D2B9708800FB01F50021084605F0CE
:10343000D5FE094930890880002D86BFB8B20749FA
:10344000BDE8F0810880641CA542FBD8BDE8F0818E
:10345000A808022060090220FEFF07600000086043
:103460002DE9F05F3F4C404DA071296839B106F05D
:10347000BBF9E88A2080288B6080BDE8F09F39493D
:103480002C232B254FF0F0094FF4487649F2413AAE
:103490004FF4A07847F2897B89884FF4F0724FF09F
:1034A0002A0C45F2105E45F2103768B1A4F800808E
:1034B0005145A4F802901CBFB942594530D123812F
:1034C000A4F80AC0A58143E0A4F800905145A4F8EF
:1034D00002801CBFB942594509D12381B942A4F8E1
:1034E0000AC0A58104BFA4F80080628035E0714560
:1034F0000BD14FF4305020814FF4285060814FF4AD
:103500002C50A0812280668027E0A1F5C850633846
:1035100023D123816581A4F80CC0228066801CE041
:1035200071450BD14FF4305020814FF42850608109
:103530004FF42C50A0812680628009E0A1F5C8508C
:10354000633805D12381A4F80AC0A5812680628052
:10355000B94204BF2280A4F802800020BDE8F05FD9
:1035600005F0AABCA8080220600902202DE9F04F4E
:10357000002682465F1A3546A2EB00088946B8F15C
:10358000000F83B0C8BF012007DC0FBF00204FF041
:10359000FF30C8F10008019000D10190002FC8BF92
:1035A000012006DC0FBF00204FF0FF307F4200906B
:1035B00000D10090B845CCBF44463C464FF0000BCC
:1035C000601C52BF029003B0BDE8F08F1FFA8AF36F
:1035D00015481FFA89F1006828B114480268184696
:1035E00006F016F90AE0184605F0F8FD10480189C2
:1035F000104801800D481049008808804644A642C2
:103600003D4402DD0198361B8244A54202DD00984C
:103610002D1B81440BF101001FFA80FB02988345AA
:10362000D4DD03B0BDE8F08F600902201400022051
:10363000A8080220FEFF0760000008602DE9F041A5
:103640001C4615460E4607460B46FFF78FFF3A46C7
:10365000234631461046FFF789FF23462A4619467E
:103660003846FFF783FF2A46234631461046BDE819
:10367000F041FFF77BBF00002DE9F04F00248146A9
:1036800015004FF0030085B08846A0EB450644BF07
:1036900005B0BDE8F08F6B4FDFF8ACA1DFF8ACB13F
:1036A00009EB040083B20090A8EB0500039081B2FF
:1036B0006748006820B13A68184606F0A9F809E0A2
:1036C000184605F08BFDBAF80800ABF80000614918
:1036D0003888088009EB050083B20190A8EB04004C
:1036E000029081B25A48006820B13A68184606F044
:1036F0008FF809E0184605F071FDBAF80800ABF83C
:103700000000544938880880019883B208EB04000F
:10371000019081B24E48006820B13A68184606F020
:1037200077F809E0184605F059FDBAF80800ABF83B
:103730000000484938880880009883B208EB0500EB
:10374000049081B24248006820B13A68184606F0F9
:103750005FF809E0184605F041FDBAF80800ABF83B
:1037600000003C4938880880A9EB0400009083B22F
:10377000049881B23648006820B13A68184606F0CD
:1037800047F809E0184605F029FDBAF80800ABF83B
:103790000000304938880880A9EB0500049083B206
:1037A000019881B22A48006820B13A68184606F0AC
:1037B0002FF809E0184605F011FDBAF80800ABF83B
:1037C0000000244938880880009883B2039881B2A9
:1037D0001F48006820B13A68184606F019F809E059
:1037E000184605F0FBFCBAF80800ABF800001949D0
:1037F00038880880164A0498029980B2126889B203
:103800001AB13A6806F004F808E005F0E7FCBAF8E7
:103810000800ABF800000F4938880880641C002EAF
:10382000BCBF06EB8400861D05DB601B6D1E06EB2E
:10383000800000F10A06AC427FF732AF05B0BDE868
:10384000F08F000014000220A8080220FEFF07608D
:1038500060090220000008602DE9F84F954B1B68B5
:103860001BB1BDE8F84F05F0D3BFDFF84CA20C0A3E
:10387000DFF84892CBB25546070ABAF804C009F1FE
:103880000206A98900F0FF086D89ACF5134BBBF166
:10389000410B1FBFACF5A04BBBF5447BACF5EE4B29
:1038A000BBF1890B09D0ACF5A04BBBF5A26B3DD0A9
:1038B000ACF5C857633F7DD0F4E0ADF80050BDF8DB
:1038C0000000ADF80000BDF80000A9F80000ADF858
:1038D0000070BDF80000ADF80000BDF800003080B9
:1038E000ADF80080BDF80000ADF80000BDF80000A4
:1038F0003080ADF80010BDF80000ADF80000BDF854
:103900000000A9F80000ADF80040BDF80000ADF8D7
:103910000000BDF800003080ADF80030BDF80000B8
:10392000ADF80000BDF800003080BBE0ADF80050FD
:10393000BDF80000ADF80000BDF80000A9F80000D7
:10394000ADF80070BDF80000ADF80000BDF8000053
:103950003080681CADF80000BDF80000ADF8000034
:10396000BDF80000A9F80000ADF80080BDF8000027
:10397000ADF80000BDF800003080ADF80010BDF8D3
:103980000000ADF80000BDF80000A9F80000ADF897
:103990000040BDF80000ADF80000BDF80000308028
:1039A000481CADF80000BDF80000ADF80000BDF8FF
:1039B000000000E00BE0A9F80000ADF80030BDF811
:1039C0000000ADF80000BDF8000030806AE09AF811
:1039D00006C0BCF1000F05D1BAF800C0ACEB000086
:1039E000401E80B2ADF80050BDF800C0ADF800C078
:1039F000BDF800C0A9F800C04FEA102CADF800C017
:103A0000BDF80050ADF80050BDF800503580C0B290
:103A1000ADF80000BDF80050ADF80050BDF8005002
:103A20003580ADF800C0BDF800C0ADF800C0BDF8ED
:103A300000C0A6F800C0ADF80000BDF80000ADF869
:103A40000000BDF800003080ADF80010BDF80000A7
:103A5000ADF80000BDF80000A9F80000ADF8004086
:103A6000BDF80000ADF80000BDF800003080ADF8F2
:103A70000030BDF80000ADF80000BDF80000308057
:103A8000ADF80040BDF80000ADF80000BDF8000042
:103A90003080ADF80030BDF80000ADF80000BDF892
:103AA00000003080BAF80800A9F800003280BDE8B4
:103AB000F88F000060090220A8080220FEFF0760BE
:103AC0002DE9F84F1F46194B83460C460A981B6890
:103AD00033B13B460090584605F0BCFEBDE8F88F78
:103AE000A2EB0B01491C8DB2BC4288BFBDE8F88F28
:103AF000DFF83C9086B2DFF83CA00AF102082146CC
:103B0000584605F06BFBB9F80800AAF80000002041
:103B1000002D05D9A8F80060401C80B28542F9D874
:103B2000601C84B2BC42EAD9BDE8F88F600902206B
:103B3000A8080220FEFF07602DE9F04F95B006F0BF
:103B400077F8FE49888018B105F0E0FE05F042B82C
:103B5000FB480068FA4940F0020008600868012646
:103B60004FF02008CDF8388000F0020013904FF09D
:103B70000309CDF84490F3480EA9CDE90F66FDF78F
:103B80008FFD05F08FF8F0494FF02040002707AA7D
:103B90000860EE484860084687601020CF600F61DB
:103BA0004861000248628000C8620F200090002037
:103BB000019050200290002006900F2007900020D6
:103BC00008900F20099000200D90DF486946FFF70C
:103BD00080F8322007F006FDD320ADF84C00BDF888
:103BE0004C00ADF84C00BDF84C00D94D2880AC1C01
:103BF0002088ADF84C00BDF84C00DFF840A32088C9
:103C0000ADF84C00BDF84C002088ADF84C00BDF874
:103C10004C004FF6FF7B21880BEA0020ADF84C10DA
:103C2000BDF84C100843AAF80400A0F5134141392F
:103C30007DD00420ADF84C00BDF84C00ADF84C0030
:103C4000BDF84C0028802088ADF84C00BDF84C0031
:103C50002088ADF84C00BDF84C002088ADF84C0031
:103C6000BDF84C0021880BEA0020ADF84C10BDF8DF
:103C70004C100843AAF80400A0F50541523908BFCA
:103C800047F2897000F06484A0F5EE4189394ED086
:103C9000D420ADF84C00BDF84C00ADF84C00BDF898
:103CA0004C0028802088ADF84C00BDF84C002088DE
:103CB000ADF84C00BDF84C002088ADF84C00BDF8C4
:103CC0004C0021880BEA0020ADF84C10BDF84C10D8
:103CD0000843AAF80400A0F5A641103971D0552078
:103CE0004FF4704129802080491CAA20298020801F
:103CF000491C522029802080491C082029802080CE
:103D0000491C0120298020804FF44540ADF84C002B
:103D1000BDF84C00ADF84C00BDF84C002880208860
:103D2000ADF84C00BDF84C000BEA002000E048E084
:103D30004CF20151ADF84C10BDF84C10ADF84C10E0
:103D4000BDF84C1029802188ADF84C10BDF84C10FE
:103D50000843AAF80400052007F044FCBAF8040060
:103D6000B0F5004F08BF45F2105000F0F183A0F508
:103D7000AA41103925D0A120ADF84C00BDF84C0067
:103D8000ADF84C00BDF84C0028802088ADF84C0000
:103D9000BDF84C002088ADF84C00BDF84C002188DF
:103DA0000BEA0020ADF84C10BDF84C100843AAF8FF
:103DB0000400A0F5AE41613904BF41F66310AAF8D2
:103DC000040081B263A0FCF7B9FA5C4811224FF0FD
:103DD000E00A4FF0020B8088A0F51341413916D05C
:103DE000A0F5EE41893900F0B683E223A0F5A641A3
:103DF000103900F05186A0F5AA41103903F0B486BD
:103E0000A0F5C851633904F0C98404F0E3BECF20A3
:103E1000ADF84C00BDF84C00ADF84C00BDF84C00BE
:103E20002880ADF84C70BDF84C00ADF84C00BDF8E2
:103E30004C002080C121ADF84C10BDF84C00ADF80D
:103E40004C00BDF84C0020803020ADF84C00BDF88F
:103E50004C30ADF84C30BDF84C302380ED23ADF83C
:103E60004C30BDF84C30ADF84C30BDF84C302B80A8
:103E70006423ADF84C30BDF84C30ADF84C30BDF893
:103E80004C302380ADF84C90BDF84C30ADF84C3040
:103E9000BDF84C3023801223ADF84C30BDF84C30C7
:103EA000ADF84C30BDF84C3023808123ADF84C3058
:103EB000BDF84C30ADF84C30BDF84C302380E823D1
:103EC000ADF84C30BDF84C30ADF84C30BDF84C304E
:103ED0002B808523ADF84C30BDF84C30ADF84C301C
:103EE000BDF84C3023801023ADF84C30BDF84CC0E9
:103EF000ADF84CC0BDF84CC0A4F800C04FF07A0C2F
:103F0000ADF84CC0BDF84CC0ADF84CC0BDF84CC0CD
:103F1000A4F800C04FF0CB0CADF84CC0BDF84CC0BD
:103F2000ADF84CC0BDF84CC0A5F800C04FF0390C3E
:103F3000ADF84CC0BDF84CC014E00000A808022049
:103F400030380240000402405C080220040100A056
:103F5000FEFF0760204C43442049443A25780D0A6F
:103F600000000000ADF84CC0BDF84CC0A4F800C083
:103F70004FF02C0CADF84CC0BDF84CC0ADF84CC0A7
:103F8000BDF84CC0A4F800C0ADF84C70BDF84CC0F2
:103F9000ADF84CC0BDF84CC0A4F800C04FF0340CD4
:103FA000ADF84CC0BDF84CC0ADF84CC0BDF84CC02D
:103FB000A4F800C0ADF84CB0BDF84CC0ADF84CC092
:103FC000BDF84CC0A4F800C04FF0F70CADF84CC0E1
:103FD000BDF84CC0ADF84CC0BDF84CC0A5F800C051
:103FE000ADF84C80BDF84CC0ADF84CC0BDF84CC02D
:103FF000A4F800C04FF0EA0CADF84CC0BDF84CC0BE
:10400000ADF84CC0BDF84CC0A5F800C0ADF84C7080
:10401000BDF84CC0ADF84CC0BDF84CC0A4F800C011
:10402000ADF84C70BDF84CC0ADF84CC0BDF84CC0FC
:10403000A4F800C04FF0C00CADF84CC0BDF84CC0A7
:10404000ADF84CC0BDF84CC0A5F800C04FF01B0C3B
:10405000ADF84CC0BDF84CC0ADF84CC0BDF84CC07C
:10406000A4F800C0ADF84C10BDF84C10ADF84C10E1
:10407000BDF84C102980ADF84C60BDF84C10ADF87F
:104080004C10BDF84C102180C521ADF84C10BDF886
:104090004C10ADF84C10BDF84C102980ADF84C0018
:1040A000BDF84C10ADF84C10BDF84C102180ADF8A7
:1040B0004C00BDF84C00ADF84C00BDF84C00208021
:1040C000C720ADF84C00BDF84C00ADF84C00BDF871
:1040D0004C002880B720ADF84C00BDF84C00ADF87E
:1040E0004C00BDF84C0020803620ADF84C00BDF8E7
:1040F0004C00ADF84C00BDF84C0028804820ADF8CD
:104100004C00BDF84C00ADF84C00BDF84C002080D0
:104110003A20ADF84C00BDF84C00ADF84C00BDF8AD
:104120004C0028805520ADF84C00BDF84C00ADF88F
:104130004C00BDF84C002080B120ADF84C00BDF81B
:104140004C00ADF84C00BDF84C002880ADF84C7028
:10415000BDF84C00ADF84C00BDF84C0020801A2092
:10416000ADF84C00BDF84C00ADF84C00BDF84C006B
:104170002080B620ADF84C00BDF84C00ADF84C00E6
:10418000BDF84C0028804FF00A09ADF84C90BDF8FE
:104190004C00ADF84C00BDF84C002080A220ADF8DA
:1041A0004C00BDF84C00ADF84C00BDF84C00208030
:1041B000F220ADF84C00BDF84C00ADF84C00BDF855
:1041C0004C002880ADF84C70BDF84C00ADF84C00A8
:1041D000BDF84C0020802620ADF84C00BDF84C0006
:1041E000ADF84C00BDF84C002880ADF84C60BDF82F
:1041F0004C00ADF84C00BDF84C002080ADF84CA050
:10420000BDF84C00ADF84C00BDF84C0028800F20E4
:10421000ADF84C00BDF84C10ADF84C10BDF84C108A
:1042200021804FF02A08ADF84C80BDF84C10ADF855
:104230004C10BDF84C1021802821ADF84C10BDF871
:104240004C10ADF84C10BDF84C1021800821ADF891
:104250004C10BDF84CC0ADF84CC0BDF84CC0A4F833
:1042600000C04FF00E0CADF84CC0BDF84CC0ADF81E
:104270004CC0BDF84CC0A4F800C0ADF84C10BDF85F
:104280004C10ADF84C10BDF84C1021805421ADF805
:104290004C10BDF84C10ADF84C10BDF84C102180FE
:1042A000A921ADF84C10BDF84C10ADF84C10BDF87C
:1042B0004C1021804321ADF84C10BDF84C10ADF8E6
:1042C0004C10BDF84C102180ADF84C90BDF84C104E
:1042D000ADF84C10BDF84C102180ADF84C00BDF885
:1042E0004C10ADF84C10BDF84C102180ADF84C705E
:1042F000BDF84C10ADF84C10BDF84C102180ADF855
:104300004C70BDF84C10ADF84C10BDF84C1021802D
:10431000ADF84C70BDF84C10ADF84C10BDF84C1019
:104320002180ADF84C70BDF84C10ADF84C10BDF8C4
:104330004C102180E121ADF84C10BDF84C10ADF8C7
:104340004C10BDF84C102980ADF84C70BDF84C10E5
:10435000ADF84C10BDF84C1021801521ADF84C1073
:10436000BDF84C10ADF84C10BDF84C102180172151
:10437000ADF84C10BDF84C10ADF84C10BDF84C1019
:1043800021800721ADF84C10BDF84C10ADF84C1051
:10439000BDF84C102180ADF84C20BDF84C10ADF8A4
:1043A0004C10BDF84C1021800621ADF84C10BDF822
:1043B0004C10ADF84C10BDF84C1021804FF02B0C78
:1043C000ADF84CC0BDF84C10ADF84C10BDF84C1019
:1043D00021805621ADF84C10BDF84C10ADF84C10B2
:1043E000BDF84C1021803C21ADF84C10BDF84C10AC
:1043F000ADF84C10BDF84C1021800521ADF84C10E3
:10440000BDF84C10ADF84C10BDF84C102180ADF843
:104410004C30BDF84C10ADF84C10BDF84C1021805C
:10442000ADF84C00BDF84C10ADF84C10BDF84C1078
:1044300021803F21ADF84C10BDF84C30ADF84C3028
:10444000BDF84C302380ADF84C10BDF84C30ADF8C1
:104450004C30BDF84C302380ADF84C00BDF84C001A
:10446000ADF84C00BDF84C002080ADF84CC0BDF854
:104470004C00ADF84C00BDF84C002880ADF84C70F5
:10448000BDF84C00ADF84C00BDF84C002080ADF8F4
:104490004C70BDF84C00ADF84C00BDF84C002080CD
:1044A000ADF84C60BDF84C00ADF84C00BDF84C00C8
:1044B0002080ADF84C10BDF84C00ADF84C00BDF8B4
:1044C0004C002080ADF84C80BDF84C00ADF84C009D
:1044D000BDF84C002880ADF84C70BDF84C00ADF82C
:1044E0004C00BDF84C002080ADF84C70BDF84C007D
:1044F000ADF84C00BDF84C002080ADF84C70BDF814
:104500004C00ADF84C00BDF84C002080EF20ADF819
:104510004C00BDF84C00ADF84C00BDF84C002080BC
:10452000ADF84C20BDF84C00ADF84C00BDF84C0087
:104530002880782007F056F82920ADF84C00BDF807
:104540004C00ADF84C00BDF84C00288004F042BB94
:10455000AAF8040035E4ADF84C20BDF84C00ADF8E5
:104560004C00BDF84C002880782007F03BF836203E
:10457000ADF84C00BDF84C00ADF84C00BDF84C0057
:104580002880ADF84C70BDF84C00ADF84C00BDF87B
:104590004C0020803A20ADF84C00BDF84C00ADF83E
:1045A0004C00BDF84C0028800520ADF84C00BDF84B
:1045B0004C00ADF84C00BDF84C002080B220ADF8A6
:1045C0004C00BDF84C00ADF84C00BDF84C00288004
:1045D0000C21ADF84C10BDF84C00ADF84C00BDF806
:1045E0004C002080ADF84C10BDF84C00ADF84C00EC
:1045F000BDF84C002080ADF84C70BDF84C00ADF813
:104600004C00BDF84C0020803320ADF84C00BDF8C4
:104610004C20ADF84C20BDF84C202280ADF84C0069
:10462000BDF84C00ADF84C00BDF84C002080B72020
:10463000ADF84C00BDF84C00ADF84C00BDF84C0096
:1046400028803520ADF84C00BDF84C00ADF84C008A
:10465000BDF84C002080BB20ADF84C00BDF84C00EC
:10466000ADF84C00BDF84C0028803220ADF84C006D
:10467000BDF84C20ADF84C20BDF84C202280C02263
:10468000ADF84C20BDF84C20ADF84C20BDF84C20C6
:104690002A80ADF84C10BDF84C10ADF84C10BDF8A8
:1046A0004C102180C221ADF84C10BDF84C10ADF873
:1046B0004C10BDF84C102980ADF84C60BDF84C1082
:1046C000ADF84C10BDF84C102180C321ADF84C1052
:1046D000BDF84C10ADF84C10BDF84C1029801021DD
:1046E000ADF84C10BDF84C10ADF84C10BDF84C10A6
:1046F0002180C421ADF84C10BDF84C10ADF84C1021
:10470000BDF84C102980ADF84C80BDF84C10ADF8C8
:104710004C10BDF84C102180C621ADF84C10BDF8EE
:104720004C10ADF84C10BDF84C1029800F21ADF89D
:104730004C10BDF84C10ADF84C10BDF84C10218059
:10474000D022ADF84C20BDF84C10ADF84C10BDF89F
:104750004C102980A421ADF84C10BDF84C10ADF8D8
:104760004C10BDF84C102180A121ADF84C10BDF8C3
:104770004C10ADF84C10BDF84C102180ADF84CA099
:10478000BDF84C10ADF84C10BDF84C102980ADF8B8
:104790004C20BDF84C10ADF84C10BDF84C102180E9
:1047A000ADF84C70BDF84C10ADF84C10BDF84C1085
:1047B0002180ADF84CB0BDF84C10ADF84C10BDF8F0
:1047C0004C1021804FF0070CADF84CC0BDF84C10D8
:1047D000ADF84C10BDF84C1021800A23ADF84C30D8
:1047E000BDF84C10ADF84C10BDF84C1021804FF0C6
:1047F0002808ADF84C80BDF84C10ADF84C10BDF851
:104800004C102180ADF84C00BDF84C00ADF84C00C8
:10481000BDF84C0020804420ADF84C00BDF84C00A1
:10482000ADF84C00BDF84C0020804220ADF84C00A3
:10483000BDF84C00ADF84C00BDF84C0020800620BF
:10484000ADF84C00BDF84C00ADF84C00BDF84C0084
:1048500020800E20ADF84C00BDF84C10ADF84C1087
:10486000BDF84C1021801221ADF84C10BDF84C1051
:10487000ADF84C10BDF84C1021801421ADF84C104F
:10488000BDF84C10ADF84C10BDF84C10218017212C
:10489000ADF84C10BDF84C90ADF84C90BDF84C9074
:1048A000A4F800904FF0E109ADF84C90BDF84C90A1
:1048B000ADF84C90BDF84C90A5F80090ADF84C20A8
:1048C000BDF84C20ADF84C20BDF84C202280ADF84E
:1048D0004C70BDF84C20ADF84C20BDF84C20228027
:1048E000ADF84CB0BDF84C20ADF84C20BDF84C20D4
:1048F0002280ADF84CC0BDF84C20ADF84C20BDF87E
:104900004C202280ADF84C30BDF84C20ADF84C2046
:10491000BDF84C202280ADF84C80BDF84C20ADF89D
:104920004C20BDF84C2022803122ADF84C20BDF83F
:104930004C20ADF84C20BDF84C2022805422ADF81C
:104940004C20BDF84C20ADF84C20BDF84C20228006
:104950004722ADF84C20BDF84C20ADF84C20BDF8F6
:104960004C202280ADF84C00BDF84C00ADF84C0056
:10497000BDF84C0020801C20ADF84C00BDF84C0068
:10498000ADF84C00BDF84C002080ADF84C10BDF8DF
:104990004C00ADF84C00BDF84C0020801B20ADF859
:1049A0004C00BDF84C00ADF84C00BDF84C00208028
:1049B0001E20ADF84C00BDF84C00ADF84C00BDF821
:1049C0004C0020802A20ADF84C00BDF84C00ADF81A
:1049D0004C00BDF84C002880ADF84C70BDF84C0080
:1049E000ADF84C00BDF84C002080ADF84C70BDF81F
:1049F0004C00ADF84C00BDF84C002080ADF84C7078
:104A0000BDF84C00ADF84C00BDF84C002080EF2004
:104A1000ADF84C00BDF84C00ADF84C00BDF84C00B2
:104A200020802B20ADF84C00BDF84C00ADF84C00B8
:104A3000BDF84C002880ADF84C70BDF84C00ADF8C6
:104A40004C00BDF84C002080ADF84C70BDF84C0017
:104A5000ADF84C00BDF84C002080ADF84C60BDF8BE
:104A60004C00ADF84C00BDF84C0020803F20ADF864
:104A70004C00BDF84C00ADF84C00BDF84C00208057
:104A80002920ADF84C00BDF84C00ADF84C00BDF845
:104A90004C00288004F09EB8ED20ADF84C00BDF825
:104AA0004C00ADF84C00BDF84C002880ADF84C60CF
:104AB000BDF84C00ADF84C00BDF84C002080FE2045
:104AC000ADF84C00BDF84C00ADF84C00BDF84C0002
:104AD0002080EE20ADF84C00BDF84C00ADF84C0045
:104AE000BDF84C002880DE20ADF84C00BDF84C002D
:104AF000ADF84C00BDF84C0020804FF0210CADF813
:104B00004CC0BDF84C00ADF84C00BDF84C00208006
:104B1000F120ADF84C00BDF84C00ADF84C00BDF8EC
:104B20004C0028800120ADF84C00BDF84C00ADF8D9
:104B30004C00BDF84C002080DF20ADF84C00BDF8E3
:104B40004C00ADF84C00BDF84C0028801020ADF8AA
:104B50004C00BDF84C00ADF84C00BDF84C00208076
:104B6000C420ADF84C00BDF84C00ADF84C00BDF8C9
:104B70004C0028808F20ADF84C00BDF84C00ADF8FB
:104B80004C00BDF84C002080C620ADF84C00BDF8AC
:104B90004C00ADF84C00BDF84C0028803846ADF80C
:104BA0004C70BDF84C10ADF84C10BDF84C10218085
:104BB000E223ADF84C30BDF84C10ADF84C10BDF808
:104BC0004C102180ADF84C30BDF84C10ADF84C10B5
:104BD000BDF84C102180ADF84C30BDF84C10ADF84C
:104BE0004C10BDF84C102180BF21ADF84C10BDF821
:104BF0004C10ADF84C10BDF84C102980AA21ADF82E
:104C00004C10BDF84C10ADF84C10BDF84C10218084
:104C1000B021ADF84C10BDF84C10ADF84C10BDF8FB
:104C20004C1029800D21ADF84C10BDF84C10ADF89A
:104C30004C10BDF84C102180ADF84C00BDF84C1064
:104C4000ADF84C10BDF84C1021800D21ADF84C1082
:104C5000BDF84C10ADF84C10BDF84C102180ADF8EB
:104C60004C00BDF84C10ADF84C10BDF84C10218034
:104C70001121ADF84C10BDF84C10ADF84C10BDF83A
:104C80004C102180ADF84C00BDF84C10ADF84C1024
:104C9000BDF84C1021801921ADF84C10BDF84C1016
:104CA000ADF84C10BDF84C102180ADF84C00BDF8AB
:104CB0004C10ADF84C10BDF84C102180ADF84CC034
:104CC000BDF84C10ADF84C10BDF84C102180ADF87B
:104CD0004C00BDF84C10ADF84C10BDF84C102180C4
:104CE0002D21ADF84C10BDF84C10ADF84C10BDF8AE
:104CF0004C102180ADF84C00BDF84C10ADF84C10B4
:104D0000BDF84C1021803D21ADF84C10BDF84C1081
:104D1000ADF84C10BDF84C102180ADF84C00BDF83A
:104D20004C10ADF84C10BDF84C1021805D21ADF851
:104D30004C10BDF84C20ADF84C20BDF84C20228022
:104D4000ADF84C00BDF84C20ADF84C20BDF84C201F
:104D50002280ADF84C10BDF84C10ADF84C10BDF8E9
:104D60004C102180ADF84C00BDF84C10ADF84C1043
:104D7000BDF84C102180B121ADF84C10BDF84C109D
:104D8000ADF84C10BDF84C1029808021ADF84C10C6
:104D9000BDF84C10ADF84C10BDF84C102180ADF8AA
:104DA0004C00BDF84C10ADF84C10BDF84C102180F3
:104DB0008B22ADF84C20BDF84C10ADF84C10BDF86E
:104DC0004C102180ADF84C00BDF84C10ADF84C10E3
:104DD000BDF84C1021809623ADF84C30BDF84C1036
:104DE000ADF84C10BDF84C102180ADF84C00BDF86A
:104DF0004C10ADF84C10BDF84C102180B221ADF82C
:104E00004C10BDF84C10ADF84C10BDF84C1029807A
:104E1000ADF84C00BDF84C10ADF84C10BDF84C107E
:104E20002180ADF84C00BDF84C10ADF84C10BDF829
:104E30004CC02146A4F800C00224ADF84C40BDF897
:104E40004CC0ADF84CC0BDF84CC0A1F800C0ADF8E6
:104E50004C00BDF84CC0ADF84CC0BDF84CC0A1F83A
:104E600000C0ADF84C90BDF84CC0ADF84CC0BDF8DA
:104E70004CC0A1F800C0ADF84C00BDF84CC0ADF876
:104E80004CC0BDF84CC0A1F800C04FF0B30CADF859
:104E90004CC0BDF84CC0ADF84CC0BDF84CC0A5F836
:104EA00000C0ADF84C00BDF84CC0ADF84CC0BDF82A
:104EB0004CC0A1F800C0ADF84C00BDF84CC0ADF836
:104EC0004CC0BDF84CC0A1F800C0ADF84C00BDF816
:104ED0004CC0ADF84CC0BDF84CC0A1F800C0ADF856
:104EE0004C00BDF84CC0ADF84CC0BDF84CC0A1F8AA
:104EF00000C0ADF84C00BDF84CC0ADF84CC0BDF8DA
:104F00004CC0A1F800C0ADF84C00BDF84CC0ADF8E5
:104F10004CC0BDF84CC0A1F800C0ADF84C00BDF8C5
:104F20004CC0ADF84CC0BDF84CC0A1F800C0ADF805
:104F30004C00BDF84CC0ADF84CC0BDF84CC0A1F859
:104F400000C0ADF84C00BDF84CC0ADF84CC0BDF889
:104F50004CC0A1F800C0ADF84C00BDF84CC0ADF895
:104F60004CC0BDF84CC0A1F800C0ADF84C00BDF875
:104F70004CC0ADF84CC0BDF84CC0A1F800C0ADF8B5
:104F80004C00BDF84CC0ADF84CC0BDF84CC0A1F809
:104F900000C0ADF84C00BDF84CC0ADF84CC0BDF839
:104FA0004CC0A1F800C0ADF84C00BDF84CC0ADF845
:104FB0004CC0BDF84CC0A1F800C0ADF84C00BDF825
:104FC0004CC0ADF84CC0BDF84CC0A1F800C0ADF865
:104FD0004C00BDF84CC0ADF84CC0BDF84CC0A1F8B9
:104FE00000C0ADF84C00BDF84CC0ADF84CC0BDF8E9
:104FF0004CC0A1F800C0ADF84C00BDF84CC0ADF8F5
:105000004CC0BDF84CC0A1F800C0ADF84C00BDF8D4
:105010004CC0ADF84CC0BDF84CC0A1F800C0ADF814
:105020004C00BDF84CC0ADF84CC0BDF84CC0A1F868
:1050300000C0ADF84C00BDF84CC0ADF84CC0BDF898
:105040004CC0A1F800C0ADF84C00BDF84CC0ADF8A4
:105050004CC0BDF84CC0A1F800C0ADF84C00BDF884
:105060004CC0ADF84CC0BDF84CC0A1F800C0ADF8C4
:105070004C00BDF84CC0ADF84CC0BDF84CC0A1F818
:1050800000C04FF0B40CADF84CC0BDF84CC0ADF84A
:105090004CC0BDF84CC0A5F800C0ADF84C20BDF820
:1050A0004C20ADF84C20BDF84C200A80ADF84C00E7
:1050B000BDF84C20ADF84C20BDF84C200A80ADF86E
:1050C0004C30BDF84C20ADF84C20BDF84C200A8087
:1050D000ADF84C00BDF84C20ADF84C20BDF84C208C
:1050E0000A80A122ADF84C20BDF84C20ADF84C2030
:1050F000BDF84C200A80ADF84C00BDF84C20ADF84E
:105100004C20BDF84C200A80B522ADF84C20BDF8EB
:105110004C20ADF84C20BDF84C202A80ADF84C4016
:10512000BDF84C20ADF84C20BDF84C200A80ADF8FD
:105130004C00BDF84C20ADF84C20BDF84C200A8046
:10514000ADF84C90BDF84C20ADF84C20BDF84C208B
:105150000A80ADF84C00BDF84C20ADF84C20BDF8ED
:105160004C200A800422ADF84C20BDF84C30ADF83C
:105170004C30BDF84C300B80ADF84C00BDF84C30D5
:10518000ADF84C30BDF84C300B80B623ADF84C3048
:10519000BDF84C30ADF84C30BDF84C302B80ADF83C
:1051A0004C00BDF84C30ADF84C30BDF84C300B80A5
:1051B000ADF84C00BDF84C30ADF84C30BDF84C307B
:1051C0000B80B723ADF84C30BDF84C30ADF84C3007
:1051D000BDF84C302B80ADF84C00BDF84C30ADF82C
:1051E0004C30BDF84C300B80ADF84C00BDF84C3065
:1051F000ADF84C30BDF84C300B803F23ADF84C304F
:10520000BDF84C30ADF84C30BDF84C300B80ADF8EB
:105210004C00BDF84C30ADF84C30BDF84C300B8034
:105220005E23ADF84C30BDF84C30ADF84C30BDF8D5
:105230004C300B80ADF84C00BDF84C30ADF84C3024
:10524000BDF84C300B806423ADF84C30BDF84C30C9
:10525000ADF84C30BDF84C300B80ADF84C00BDF8CB
:105260004C30ADF84C30BDF84C300B808C23ADF891
:105270004C30BDF84C30ADF84C30BDF84C300B80A4
:10528000ADF84C00BDF84C30ADF84C30BDF84C30AA
:105290000B80AC23ADF84C30BDF84C30ADF84C3041
:1052A000BDF84C300B80ADF84C00BDF84C30ADF87B
:1052B0004C30BDF84C300B80DC23ADF84C30BDF8E1
:1052C0004CC0ADF84CC0BDF84CC0A1F800C0ADF862
:1052D0004C00BDF84CC0ADF84CC0BDF84CC0A1F8B6
:1052E00000C04FF0700CADF84CC0BDF84CC0ADF82C
:1052F0004CC0BDF84CC0A1F800C0ADF84C00BDF8E2
:105300004CC0ADF84CC0BDF84CC0A1F800C04FF087
:10531000900CADF84CC0BDF84CC0ADF84CC0BDF819
:105320004CC0A1F800C0ADF84C00BDF84CC0ADF8C1
:105330004CC0BDF84CC0A1F800C04FF0EB0CADF86C
:105340004CC0BDF84CC0ADF84CC0BDF84CC0A1F885
:1053500000C0ADF84C00BDF84CC0ADF84CC0BDF875
:105360004CC0A1F800C0ADF84C30BDF84C30ADF8E1
:105370004C30BDF84C300B80ADF84C00BDF84C30D3
:10538000ADF84C30BDF84C300B80B823ADF84C3044
:10539000BDF84C30ADF84C30BDF84C302B80ADF83A
:1053A0004C00BDF84C30ADF84C30BDF84C300B80A3
:1053B000ADF84C00BDF84C30ADF84C30BDF84C3079
:1053C0000B80ADF84C00BDF84C30ADF84C30BDF85A
:1053D0004C300B80ADF84C00BDF84C30ADF84C3083
:1053E000BDF84C300B80ADF84C00BDF84C30ADF83A
:1053F0004C30BDF84C300B80ADF84C00BDF84C3053
:10540000ADF84C30BDF84C300B80ADF84C00BDF819
:105410004C30ADF84C30BDF84C300B80ADF84C0042
:10542000BDF84C30ADF84C30BDF84C300B80BA2391
:10543000ADF84C30BDF84C30ADF84C30BDF84C30C8
:105440002B802424ADF84C40BDF84C30ADF84C30E6
:10545000BDF84C300B80ADF84C00BDF84C30ADF8C9
:105460004C30BDF84C300B80ADF84C00BDF84C30E2
:10547000ADF84C30BDF84C300B80ADF84C00BDF8A9
:105480004C30ADF84C30BDF84C300B80C123ADF83A
:105490004C30BDF84C30ADF84C30BDF84C302B8062
:1054A0002023ADF84C30BDF84C30ADF84C30BDF891
:1054B0004C300B80ADF84C00BDF84C30ADF84C30A2
:1054C000BDF84C300B805423ADF84C30BDF84C3057
:1054D000ADF84C30BDF84C300B80ADF84C00BDF849
:1054E0004C30ADF84C30BDF84C300B80FF23ADF89C
:1054F0004C30BDF84C30ADF84C30BDF84C300B8022
:10550000ADF84C00BDF84C30ADF84C30BDF84C3027
:105510000B80C223ADF84C30BDF84C30ADF84C30A8
:10552000BDF84C302B800A23ADF84C30BDF84C3020
:10553000ADF84C30BDF84C300B80ADF84C00BDF8E8
:105540004C30ADF84C30BDF84C300B80ADF84C20F1
:10555000BDF84C20ADF84C20BDF84C200A80ADF8C9
:105560004C00BDF84C20ADF84C20BDF84C200A8012
:10557000C322ADF84C20BDF84C20ADF84C20BDF84E
:105580004C202A804FF03C0CADF84CC0BDF84C20AC
:10559000ADF84C20BDF84C200A80ADF84C00BDF8A9
:1055A0004C20ADF84C20BDF84C200A803A22ADF8D2
:1055B0004C20BDF84C20ADF84C20BDF84C200A80A2
:1055C000ADF84C00BDF84C20ADF84C20BDF84C2097
:1055D0000A803922ADF84C20BDF84C20ADF84C20A3
:1055E000BDF84C200A80ADF84C00BDF84C20ADF859
:1055F0004C20BDF84C200A803722ADF84C20BDF875
:105600004C20ADF84C20BDF84C200A80ADF84C0081
:10561000BDF84C20ADF84C20BDF84C200A80ADF808
:105620004CC0BDF84C20ADF84C20BDF84C200A8091
:10563000ADF84C00BDF84C20ADF84C20BDF84C2026
:105640000A803622ADF84C20BDF84C20ADF84C2035
:10565000BDF84C200A80ADF84C00BDF84C20ADF8E8
:105660004C20BDF84C200A803227ADF84C70BDF8B4
:105670004C20ADF84C20BDF84C200A80ADF84C0011
:10568000BDF84C20ADF84C20BDF84C200A804FF0FE
:105690002F09ADF84C90BDF84C20ADF84C20BDF86A
:1056A0004C200A80ADF84C00BDF84C20ADF84C20E1
:1056B000BDF84C200A804FF02C08ADF84C80BDF8A6
:1056C0004C20ADF84C20BDF84C200A80ADF84C00C1
:1056D000BDF84C20ADF84C20BDF84C200A804FF0AE
:1056E000290BADF84CB0BDF84C20ADF84C20BDF8FE
:1056F0004C200A80ADF84C00BDF84C20ADF84C2091
:10570000BDF84C200A804FF0260EADF84CE0BDF8F5
:105710004C20ADF84C20BDF84C200A80ADF84C0070
:10572000BDF84C20ADF84C20BDF84C200A80ADF8F7
:105730004C40BDF84C20ADF84C20BDF84C200A8000
:10574000ADF84C00BDF84C20ADF84C20BDF84C2015
:105750000A80ADF84C40BDF84C20ADF84C20BDF8A7
:105760004C200A80ADF84C00BDF84C20ADF84C2020
:10577000BDF84C200A802323ADF84C30BDF84C20F6
:10578000ADF84C20BDF84C200A80ADF84C00BDF8B7
:105790004C20ADF84C20BDF84C200A80ADF84CC030
:1057A000BDF84C20ADF84C20BDF84C200A80ADF877
:1057B0004C00BDF84C20ADF84C20BDF84C200A80C0
:1057C0003622ADF84C20BDF84C20ADF84C20BDF889
:1057D0004C200A80ADF84C00BDF84C20ADF84C20B0
:1057E000BDF84C200A80ADF84C70BDF84C20ADF8E7
:1057F0004C20BDF84C200A80ADF84C00BDF84C2080
:10580000ADF84C20BDF84C200A80ADF84C90BDF8A6
:105810004C20ADF84C20BDF84C200A80ADF84C006F
:10582000BDF84C20ADF84C20BDF84C200A80ADF8F6
:105830004C80BDF84C20ADF84C20BDF84C200A80BF
:10584000ADF84C00BDF84C20ADF84C20BDF84C2014
:105850000A80ADF84CB0BDF84C20ADF84C20BDF836
:105860004C200A80ADF84C00BDF84C20ADF84C201F
:10587000BDF84C200A80ADF84CE0BDF84C20ADF8E6
:105880004C20BDF84C200A80ADF84C00BDF84C20EF
:10589000ADF84C20BDF84C200A80ADF84C40BDF866
:1058A0004C20ADF84C20BDF84C200A80ADF84C00DF
:1058B000BDF84C20ADF84C20BDF84C200A80ADF866
:1058C0004C40BDF84C20ADF84C20BDF84C200A806F
:1058D000ADF84C00BDF84C20ADF84C20BDF84C2084
:1058E0000A80ADF84C30BDF84C20ADF84C20BDF826
:1058F0004C200A80ADF84C00BDF84C20ADF84C208F
:10590000BDF84C200A80C422ADF84C20BDF84C20D4
:10591000ADF84C20BDF84C202A806222ADF84C2016
:10592000BDF84C20ADF84C20BDF84C200A80ADF8F5
:105930004C00BDF84C20ADF84C20BDF84C200A803E
:105940000522ADF84C20BDF84C20ADF84C20BDF838
:105950004C200A80ADF84C00BDF84C20ADF84C202E
:10596000BDF84C200A808422ADF84C20BDF84C20B4
:10597000ADF84C20BDF84C200A80ADF84C00BDF8C5
:105980004C20ADF84C20BDF84C200A80F022ADF838
:105990004C20BDF84C20ADF84C20BDF84C200A80BE
:1059A000ADF84C00BDF84C20ADF84C20BDF84C20B3
:1059B0000A801822ADF84C20BDF84C20ADF84C20E0
:1059C000BDF84C200A80ADF84C00BDF84C20ADF875
:1059D0004C20BDF84C200A80A422ADF84C20BDF824
:1059E0004C20ADF84C20BDF84C200A80ADF84C009E
:1059F000BDF84C20ADF84C20BDF84C200A80182290
:105A0000ADF84C20BDF84C20ADF84C20BDF84C2032
:105A10000A80ADF84C00BDF84C20ADF84C20BDF824
:105A20004C200A805022ADF84C20BDF84C20ADF837
:105A30004C20BDF84C200A80ADF84C00BDF84C203D
:105A4000ADF84C20BDF84C200A800C22ADF84C205B
:105A5000BDF84C20ADF84C20BDF84C200A80ADF8C4
:105A60004C00BDF84C20ADF84C20BDF84C200A800D
:105A70001722ADF84C20BDF84C20ADF84C20BDF8F5
:105A80004C200A80ADF84C00BDF84C20ADF84C20FD
:105A9000BDF84C200A809522ADF84C20BDF84C2072
:105AA000ADF84C20BDF84C200A80ADF84C00BDF894
:105AB0004C20ADF84C20BDF84C200A80F322ADF804
:105AC0004C20BDF84CC0ADF84CC0BDF84CC0A1F89E
:105AD00000C0ADF84C00BDF84CC0ADF84CC0BDF8EE
