:020000040800F2
:10000000B01502201D03000815DA0008E16500089C
:100010002903000891240008ADF500080000000045
:100020000000000000000000000000007DE4000867
:10003000492A000800000000E5E1000807E6000882
:1000400037030008370300083703000837030008A8
:1000500037030008370300087D2A0008A92A000892
:10006000AF2A0008B52A0008BB2A00083703000899
:100070003703000837030008370300083703000878
:100080003703000837030008370300083703000868
:10009000952400083703000837030008C12A000828
:1000A00065E6000837030008370300083703000837
:1000B0003703000837030008F5E600083703000897
:1000C0003703000837030008370300083703000828
:1000D0003703000835F50008370300083703000828
:1000E000832A000837030008370300083703000895
:1000F000EDE70008C5E700083703000837030008EC
:10010000370300083703000829E700083703000811
:1001100037030008370300083703000837030008D7
:1001200037030008370300083703000837030008C7
:1001300037030008370300083703000837030008B7
:1001400037030008370300083703000837030008A7
:100150003703000837030008370300083703000897
:100160003703000837030008370300083703000887
:1001700037030008370300083703000800000000B9
:100180003703000837030008370300083703000867
:100190003703000837030008370300083703000857
:1001A0003703000837030008370300083703000847
:1001B0003703000837030008370300083703000837
:1001C0003703000837030008000000003703000869
:1001D0003703000837030008370300083703000817
:1001E0003703000837030008370300083703000807
:1001F000370300083703000800F002F800F07EF82B
:100200000AA090E8000C82448344AAF10107DA4571
:1002100001D100F073F8AFF2090EBAE80F0013F045
:10022000010F18BFFB1A43F0010318476CC4070005
:100230008CC407000A444FF0000C10F8013B13F087
:10024000070408BF10F8014B1D1108BF10F8015B2F
:10025000641E05D010F8016B641E01F8016BF9D122
:1002600013F0080F1EBF10F8014BAD1C0C1B09D179
:100270006D1E58BF01F801CBFAD505E014F8016BEB
:1002800001F8016B6D1EF9D59142D6D3704700007D
:100290000023002400250026103A28BF78C1FBD88F
:1002A000520728BF30C148BF0B607047662913F062
:1002B000F683642900F0C480752900F0C180782994
:1002C00000F0FA80632900F0E085732900F0E585ED
:1002D000002070471FB513F0DDFB00F039FE04006D
:1002E0000020002113F0C0FB401C606000200021B2
:1002F00013F0A4FBE0601FBD10B510BD01F0EAF8DB
:100300001146FFF7E7FF10F013F801F011F903B4FD
:10031000FFF7F2FF03BC0FF034FB000009488047F1
:1003200009480047FEE7FEE7FEE7FEE7FEE7FEE7D7
:10033000FEE7FEE7FEE7FEE704480549054A064BEF
:10034000704700000DE60008F9010008B00F022018
:10035000B0150220B0110220B01102207047000039
:100360000FB4044910B503AA029800F09BFD10BC1D
:100370005DF814FB100002200FB41CB5074B06AA51
:100380007B4469460090059800F05DFD00206946B9
:1003900000F06CFD1CBC5DF814FB0000E90A0000D5
:1003A00070B5044685690068C10601D5302600E0B5
:1003B0002026C00707D070BDD4E901213046904700
:1003C000206A401C20626D1EF6D570BD70B50446D3
:1003D00085690078C00707D170BDD4E901212020CC
:1003E0009047206A401C20626D1EF6D570BD70B526
:1003F0000C460546012A05D02878800600D5EA6912
:10040000002302E0012305E05B1C934202D2E05C82
:100410000028F9D1A869E618C01AA861286A18440A
:1004200028622846FFF7BCFF04E0D5E9012114F853
:10043000010B9047B442F8D32846FFF7C7FF70BDC1
:100440002DE9F0410646002410687529314616A5AD
:1004500010D0AFF30080002802DA404213A507E075
:1004600031688A0701D512A502E0490704D511A514
:10047000012401E0AFF3008000210A2206F12407E5
:1004800009E0B0FBF2FCB0FBF2F302FB1C003030E1
:1004900078541846491C0028F3D123462A46304692
:1004A000BDE8F04100F063BA000000002D0000003C
:1004B0002B0000002000000070B504460D462146C8
:1004C0001068AFF300802188090502D50F4A7A44ED
:1004D00002E00E4A7A440E32002104F1240305E0C2
:1004E00000F00F060009965D5E54491C0028F7D104
:1004F00020780023000704D5702D02D009B1022313
:1005000011322046BDE8704000F031BAA0BA0700B1
:100510002DE9F05F894604464FF0000ADFF874B118
:10052000FB44C0F820A02046E1688847002874D02A
:10053000252806D0D4E901219047206A401C20627A
:10054000F1E700265F462046E168884720280546F7
:1005500007DB312D05D2781910F8200C08B10643BD
:10056000F1E7B00701D526F00406C4F81CA0002767
:10057000C4F818A02A2D09D028460FF0B9F838B3CE
:1005800004EB8708303DC8F8185019E059F8041BEF
:10059000204604EB87029161E1688847012F0546F8
:1005A00018D1E069002820DA26F020061DE0D8F8EE
:1005B000180000EB800005EB40003038C8F8180048
:1005C0002046E168884705460FF092F80028EED1F2
:1005D000012F0AD02E2D08D12046E16888477F1CC4
:1005E0000546022F46F02006C4DBA069002803DA86
:1005F000404246F00106A061F00701D026F0100647
:100600006C2D0BD0682D09D04C2D39D06A2D35D0EA
:10061000742D35D07A2D33D016E038E0E1682F46BE
:1006200020468847B842054609D16C2F26D04FF4A2
:100630008060E168064320468847054604E06C2F49
:100640001AD04FF4807006430DB3A5F1410019286C
:1006500002D8203546F400664A46294620462660E0
:100660004E46FFF723FE80B101280BD0F61D26F081
:10067000070000F1080956E74020E4E78020D8E7AA
:100680000020D6E706F104094DE7284652E7206A24
:10069000BDE8F09F76BA07000FB400B58DB010A981
:1006A000099000910B904FF0FF300A9000200C90C1
:1006B000064878440690064878446A4607900F99A1
:1006C00009A800F015FC0DB05DF814FB5B080000F4
:1006D000730800002DE9FF5F1D464FF0FF3B914678
:1006E0004FF000085F46D5E90146A96901987F1CD3
:1006F0008847296A824688470028F6D1BAF1FF3F29
:100700000CD0002E24F4C06419DD600614D5BAF1B3
:100710002B0F09D0BAF12D0F0ED103E0584604B0CB
:10072000BDE8F09F44F48064A96901987F1C884764
:10073000761E8246002E02DDBAF1300F03D0B9F1E9
:10074000000F26D032E0A969761E01987F1C44F480
:1007500000748847002E824605DDBAF1780F06D076
:10076000BAF1580F03D0B9F1000F10D01EE0B9F163
:10077000000F02D0B9F1100F18D1A969761E0198A7
:100780007F1C24F4007488478246102002E0082071
:1007900000E00A20814609E0A96908FB0908761EE5
:1007A00001987F1C44F4007488478246002E05DDC2
:1007B0004946504600F088FB0028EDDAE9690198C7
:1007C0008847A00502D46FF00100A8E7E00725D113
:1007D000600613D5600502D5C8F1000000E0404670
:1007E00029680A1D2A600968220501D5087015E0EC
:1007F000220701D5088011E008600FE02868011D7C
:1008000029600068210502D580F8008006E02107F4
:1008100002D5A0F8008001E0C0F8008038467EE7ED
:1008200040EA010310B59B070FD1042A0DD310C86D
:1008300008C9121F9C42F8D020BA19BA884201D9BF
:10084000012010BD4FF0FF3010BD1AB1D30703D007
:10085000521C07E0002010BD10F8013B11F8014BBD
:100860001B1B07D110F8013B11F8014B1B1B01D1D9
:10087000921EF1D1184610BD032A40F2308010F0CC
:10088000030C00F0158011F8013BBCF1020F62442B
:1008900098BF11F801CB00F8013B38BF11F8013BBC
:1008A000A2F1040298BF00F801CB38BF00F8013B69
:1008B00011F0030300F02580083AC0F0088051F8D9
:1008C000043B083A51F804CBA0E80810F5E7121DE4
:1008D0005CBF51F8043B40F8043BAFF30080D20703
:1008E00024BF11F8013B11F801CB48BF11F8012BCF
:1008F00024BF00F8013B00F801CB48BF00F8012BF2
:10090000704710B5203AC0F00B80B1E81850203A7B
:10091000A0E81850B1E81850A0E81850BFF4F5AF9F
:100920005FEA027C24BFB1E81850A0E8185044BF29
:1009300018C918C0BDE810405FEA827C24BF51F896
:10094000043B40F8043B08BF7047D20728BF31F88A
:10095000023B48BF11F8012B28BF20F8023B48BFDB
:1009600000F8012B704770477047704770472DE9BA
:10097000F0470D4699469246044600F12408016866
:10098000880604D5E06921F01001216000E0012013
:10099000A84201DD471B00E00027A1697A1902EB9C
:1009A0000900081AA0612078C00602D42046FFF78B
:1009B000F7FC002608E0D4E901211AF80600904768
:1009C000206A401C761C20624E45F4DB2078C0066D
:1009D0000AD52046FFF7E4FC06E0D4E901213020E7
:1009E0009047206A401C2062381EA7F10107F4DC02
:1009F00007E0D4E9012118F805009047206A401C5F
:100A00002062281EA5F10105F3DC2046FFF7DEFC7D
:100A10002078000602D50220BDE8F0870120FBE720
:100A200070472DE9FF4F0C461E464FF0FF378BB045
:100A3000D2E90001DDF860800A908A46C1F30A55C8
:100A400005B93D46002108464FF00000BAF1000FFD
:100A500000F4400005DA00EB80004FF4400101EAA9
:100A600050004FEA9059B9F1010F00DDB9460A98DC
:100A700050EA4A000ED044F61050A5F2FF35454327
:100A80002F14B8F1000F1ED07542291E1EDDC9F1CA
:100A900000021CE0B8F1010F4FF0000001D030213E
:100AA00003E0F24305E02154401CB042FBDB30463A
:100AB0000022002121540B99C1F80880C1E90020CF
:100AC0000FB0BDE8F08FBD1B6D1CDEE74A4600DAB3
:100AD000694206A800F088FC06AB93E8070003AB68
:100AE00083E8070050460A9900F060FD8DE8070092
:100AF000A0F500501F3800900398002D09DD42F248
:100B00001F014A46084403A90390684600F0BFFF4E
:100B100008E0A0F500504A461F3803A90390684634
:100B200000F0C9FF8DE807000004000C03D04FF06F
:100B3000FF30410800E01046B8F1000F03D000225A
:100B4000009215461EE0751E05D400F005FA3032FD
:100B500062556D1EF9D5B3460122084302D000222A
:100B60007F1C04E02078302801D100227F1E002A5B
:100B7000099786D01DE0112D07DA00F0EDF930322B
:100B800062556D1C50EA0102F5D1084302D000986D
:100B9000C8B10EE00021681E05E0235C625C63546E
:100BA0002254401E491C8142F7DBAB46A81B401E65
:100BB0000990002004F80B000B98099AC0F80880EF
:100BC000C0E9002B7CE711264FF0000859E72DE91A
:100BD000F04F88460446D21D22F0070191B0D1E9BA
:100BE0000001CDE90A010EF006FD02460B98C00F88
:100BF00001D02D2007E02068810701D52B2002E0DD
:100C0000202101EAC000032A099001D0072A05DB50
:100C100003464146204600F0EDF90BE120788006BE
:100C200001D5E06900E00620B8F1650F814606D0E5
:100C3000B8F1660F18D0B8F1670F70D131E000201D
:100C4000B9F1110F009001DB112301E009F101035B
:100C50000AAA01A90CA8FFF7E4FEDDE90C70002642
:100C600009F10105834647E001204B4600904FF013
:100C700000470AAA01A90CA8FFF7D3FEDDE90DB0D1
:100C80000C995D46002610B909F101000D18B9EB69
:100C9000050003D4C0F1FF3609F10105A5EB0900F9
:100CA0002BE0B9F1010F01DA4FF001090020B9F191
:100CB000110F0090484601DD112300E003460AAA07
:100CC00001A90CA8FFF7ADFEDDE90C704D4600262A
:100CD0008346207800070AD4AB4500DA5D4601A8B8
:100CE000012D04DD411911F8011C302907D04F45B1
:100CF00002DA17F1040F04DA012082460FE06D1EBC
:100D0000EEE7002F02DCED1B3E4403E0781CA84216
:100D100000DD7D1CB81B00F1010A4FF00047207870
:100D2000000703D4AA4501DB4FF0FF3A0021B7F1D9
:100D3000004F0DF143088DF8431024D002202B23DF
:100D4000002F01DA7F422D230A21021EA0F10100AB
:100D500000DC5FB197FBF1FC97FBF1F201FB1C7C1F
:100D600017460CF1300C08F801CDEEE7A8F10100B0
:100D700003702188090501D5452100E06521A0F116
:100D8000010800F8011C09980FA9A1EB0807FF1D35
:100D900000B10120411901EBEA70A1693844081A39
:100DA000401EA0612078C00602D42046FFF7F8FA62
:100DB000099828B1D4E901219047206A401C20629B
:100DC0002078C00622D52046FFF7EAFA1EE0002E62
:100DD00004DBB34502DD01A8805D00E03020D4E9EA
:100DE00001219047206A401C2062761CAAF1010074
:100DF0005FEA000A0AD100F0ABF8C0680168405C05
:100E0000D4E901219047206A401C2062281EA5F1E8
:100E10000105DCDC07E0D4E9012118F8010B90475B
:100E2000206A401C2062381EA7F10107F3DC20462F
:100E3000FFF7CCFA032011B043E6000001694A1C19
:100E400002610878704700B58FB0CDE9013100210B
:100E5000059105497944CDE9031011466846FFF72D
:100E600057FB0FB000BD0000E5FFFFFF0A6802F866
:100E7000010B0A60704710B5436913B1AFF30080EE
:100E800001E0FFF7B4FA012010BD127800F124014F
:100E90000A7000224A700122EDE711684FF0FF321C
:100EA000E9E70000074B70B50D467B44FFF7CBFF29
:100EB0000446284600F006FB10B14FF0FF3070BD2D
:100EC000204670BD97F100003A2800D2303820F05B
:100ED0002002412A01D3A2F13700884201D34FF00A
:100EE000FF3070470268114413780160184670475C
:100EF000D160054979445161044979441162002166
:100F00001161114600F0B6B8EDFFFFFFE5000000EB
:100F1000426842B1016811F8013B23B1521EC0E999
:100F20000012184670470121C160881E7047426850
:100F30005AB1C368016843B983688B4205D0491E22
:100F4000521CC0E90012002070474FF0FF3070477C
:100F5000004870476C0F022030B5B0F10A024FEA2A
:100F6000900E71F100034EEA817EB0EB0E0061EB52
:100F700091014FEA101E4EEA017E10EB0E0041EB8C
:100F800011114FEA102E4EEA016E10EB0E0041EBEC
:100F900011214FEA104E4EEA014E10EB0E0041EBCC
:100FA0001141401841F100014FEAD00040EA417080
:100FB0004FEAD10110EB80054FEA810444EA9074B6
:100FC00044EB01046D1944EB0404521BA3414FF0A0
:100FD000000348BF0A3200D530BD401C41F100017A
:100FE00030BD10B5044600F09BFA0068005D00F0CB
:100FF000010010BD2DE9F0411F460446032601689B
:10100000072A01F4006004DB08B116A505E016A567
:1010100003E008B115A500E015A521F0100020603F
:10102000A069C01EA0610FB1401EA0612046FFF75D
:10103000B7F94FB1D4E9012138469047206A401CE6
:101040002062C01C206206E0206AFAE7D4E9012190
:1010500015F8010B9047761EF8D22046FFF7B6F937
:10106000BDE8F0814E414E006E616E00494E460073
:10107000696E66002DE9F34F4FF0000A0C465646A4
:101080008DB001200C9001F10C000B9062690B985F
:1010900001219047051E2DD0252D2CD0216A88478F
:1010A000C0B162690B9801219047216A88470028E6
:1010B000F7D16269411E0B98904700E0761CA16948
:1010C0000D988847216A88470028F7D1E1690D9873
:1010D0008847DBE7A1690D988847A842074601D1F8
:1010E000761CD3E7E1690D9888477F1C02D1BAF1DD
:1010F000000F6FD06BE162690B9800273D463946BF
:1011000090472A2804D162690B9801219047012554
:10111000DFF8D08262690B9801219047A0F130017D
:101120000A290AD24745E5DC07EB870100EB4107B6
:10113000303FDFD445F01005ECE7E90601D46FF04D
:1011400000476C280AD04C2814D0682815D06A288B
:101150000DD074281CD07A281AD01DE062690B9833
:10116000012190476C2802D045F0040514E045F0B9
:1011700002050DE045F020050AE062690B980121A7
:101180009047682802D045F0080505E045F4006561
:1011900062690B9801219047C4E9015765283DD049
:1011A00019DC58287AD00CDC452837D004DC2528F7
:1011B00026D041289ED131E046282FD0472899D10A
:1011C0002CE05B2877D0612828D063287CD0642865
:1011D00023D15AE0F6E06F2848D008DC66281DD0FD
:1011E00067281BD0692821D06E2816D127E07028E7
:1011F00045D0732868D0752847D078280DD14DE0A8
:10120000A1690D988847252805463FF469AFE16933
:101210000D9888476D1C3FF46AAFD8E00D992346BE
:101220006A466FF00100AFF30080C5E045F0400072
:1012300023464FF000026060A80736D43EE0E8077E
:101240007FF447AF2068011D21600068290501D5A2
:1012500006701BE7290701D5068017E7A90703D504
:10126000F117C0E9006111E706600FE745F04000A3
:1012700023464FF008026060A80716D41EE040F62F
:101280000E0125EA0100606016E045F040002346AB
:101290004FF00A026060A80707D40FE045F0400055
:1012A0006060A80708D5234610220D996FF0010051
:1012B000AFF3008080E007E0102223460D996FF025
:1012C0000100FFF707FA77E04FF0000963284F4667
:1012D000C8464B46CB4602D05B2806D038E0E8062D
:1012E00001D40120A060012732E06269D4F80CB07B
:1012F0000B98012190475E2807D14FF0010949461C
:101300006269D4F80CB00B989047216939B9002173
:101310000A4603AB43F82120491C0829FADBD8B35D
:10132000216949B308F1010862690B9801219047CE
:101330005D28F4D1B9F1000F09D0002003A951F8BC
:101340002020D24341F82020401C0828F7DB03ABC3
:101350002069002820794FEA40701ED05B46224663
:10136000CDF80080CDE901970D9900286FF00100BC
:1013700020DAAFF300801FE0C11703AA00EBD161B0
:101380004B1121F01F0102EB8302411A1368012067
:10139000884003431360C7E719E00D9922460028EF
:1013A0006FF00100009702DAAFF3008004E0AFF3C2
:1013B000008001E0AFF3008000280ADA401C06D16B
:1013C0000C9820B14FF0FF300FB0BDE8F08F5046C1
:1013D000FAE7E90701D10AF1010A064400200C905E
:1013E00054E60000CCCCCC0C2DE9F04781461646E3
:1013F0008AB0334878440DC88DE80D0030487844F1
:10140000801C03AC0DC884E80D0041F69B300844F5
:10141000372190FBF1F290FBF1F5A5F1800501FB7E
:1014200012041B3C02D56442012000E00020DFF8DA
:1014300090A080460027FA44AAF1BE0A0DE0E0071A
:1014400009D03246684607EB47010AEB810100F0FC
:1014500032FB8DE8070064107F1C002CEFD1184F81
:101460007F44AC3F18E0E80714D007EB04100DF1FF
:10147000180A90E80E008AE80E00C068F04201D118
:1014800098190890324606A903A800F014FB03AB94
:1014900083E807006D10641C002DE4D132466946D4
:1014A000B8F1000F03A802D000F0F1FA01E000F05B
:1014B00002FBC9E90001C9F808200AB0BDE8F087BD
:1014C00030AC0700007B00F0800070470048704798
:1014D0004C0F02207546FFF7F9FFAE46050069463E
:1014E000534620F00700854618B020B5FEF724FFCC
:1014F000BDE820404FF000064FF000074FF0000815
:101500004FF0000B21F00701AC46ACE8C009ACE895
:10151000C009ACE8C009ACE8C0098D4670470000BE
:1015200010B5FFF715FD001D10BD00BF3D250100E2
:1015300010B50446AFF300802046BDE81040FEF72A
:10154000E6BE00004FF0013C50F8042B51F8043B7C
:101550009A4215D1A2EB0C03934313EACC130BD19F
:1015600050F8042B51F8043B9A4209D1A2EB0C032A
:10157000934313EACC13E7D04FF00000704700BF4D
:10158000D01A01BAB1FA81F101F0180122FA01F082
:10159000CB40C1F12001DBB2C0B2C01A2CFA01F37A
:1015A000D11A914311EAC311E6D170475FEA400CAA
:1015B00008BF91F0000F4FEA8C234FEAC12243EAA3
:1015C00051514FEA1C5018BF00F5F0404FEA30006F
:1015D00018BF41F000415FEA6C5C00F02980BCF16B
:1015E000FF3F08BF40F080407047130C06BF120455
:1015F0004FF0100C4FF0000C130E04BF12020CF150
:10160000080C130F04BF12010CF1040C930F04BF5C
:1016100092000CF1020CD30F04BF52000CF1010C2C
:1016200011464FF00002A0F11F00A0EB0C00704724
:1016300011F0004F08BF704731F000413FF4D5AFC3
:101640000B0C06BF09044FF0100C4FF0000C0B0EF2
:1016500004BF09020CF1080C0B0F04BF09010CF1C7
:10166000040C8B0F04BF89000CF1020CCB0F04BFDC
:1016700049000CF1010CCCF12003A0EB0C0022FA84
:1016800003F302FA0CF241EA030100F10100704792
:1016900020F07F4C80EA030023F07F47ACEB070388
:1016A00003F57C5300F0004003F1FF032DE980496E
:1016B0004FEA154B09B44FEA144325EA0B4E24EACE
:1016C00003480FF2042606EB132749083E785FEA29
:1016D000320203FB0667C7F5000707FB06F64FEA71
:1016E00054374FEAD64606F1020607FB066CCCF1EA
:1016F000005C4FEA1C472CEA074C07FB06F40CFB86
:1017000006F504EB15464FEA961634BF00204FF05D
:1017100000404FEAD13706FB07FC4FEA1C4C0CFB9C
:101720000BF7D21B03FB0CF761EB07010CFB0EF769
:10173000B0EB074072EB17420CFB08F734BFA2EB8B
:101740000742B2EB074261EB17414FEA0C444FEA04
:10175000910706FB07FC4FEA1C4C0CFB0BF7B0EBA8
:10176000C74072EB573203FB0CF734BFA2EBC74202
:10177000B2EBC74261EB57310CFB0EF7B0EBC70081
:1017800072EB57720CFB08F734BFA2EBC702B2EB47
:10179000C70261EB5771039F4FEA816141EA9211E1
:1017A00004EBCC044FEAD1374FEA826206FB07FC18
:1017B00042EA90124FEA80604FEA1C4C0CFB0BF798
:1017C000D21B03FB0CF761EB07010CFB0EF7B0EB30
:1017D000074072EB17420CFB08F734BFA2EB07423D
:1017E000B2EB074261EB17414FEA8C554FEA910784
:1017F00004EB9C2406FB07FC4FEA1C4C0CFB0BF78C
:10180000B0EBC74072EB573203FB0CF734BFA2EBCF
:10181000C742B2EBC74261EB57310CFB0EF7B0EB9E
:10182000C70072EB57720CFB08F734BFA2EBC7027C
:10183000B2EBC70261EB577115EB4C254FEA8161A2
:1018400041EA92114FEA82624FEAD13742EA90129E
:1018500006FB07FC44F100044FEA80604FEA1C4C91
:101860000CFB0BF7D21B03FB0CF761EB07010CFB26
:101870000EF7B0EB074072EB17420CFB08F734BFD2
:10188000A2EB0742B2EB074261EB174115EB1C15C7
:101890004FEA813141EA92414FEA823242EA904274
:1018A0004FEA80304FEA0C7644F1000448EA0343E3
:1018B0004EEA0B484FF0000EB2EB080C71EB030739
:1018C00024BF624639464EEB0E0E4FF0000B001857
:1018D000524149414BEB0B0BB2EB080C71EB030788
:1018E0007BF1000B24BF624639464EEB0E0E4FF0E3
:1018F000000B0018524149414BEB0B0BB2EB080CAB
:1019000071EB03077BF1000B24BF624639464EEBB7
:101910000E0E51EA020718BF46F0010616EB0E76CE
:1019200055F1000254F1000103D5BDE88901BDE87D
:101930000088BDE88901BDE80048B619524141EB75
:101940000101A3F10103704780807F7E7D7C7B7A5B
:101950007978777676757473727171706F6E6E6D5B
:101960006C6C6B6A6A696868676666656464636301
:1019700062616160605F5F5E5E5D5D5C5C5B5B5A87
:101980005A595958585757565655555554545353F4
:1019900052525251515050504F4F4F4E4E4D4D4D4F
:1019A0004C4C4C4B4B4B4A4A4A494949484848479A
:1019B00047474746464645454544444444434343D8
:1019C0004342424242414141002B26D4770021D07C
:1019D0001CB54FEA370703B44FF010004FF0100169
:1019E0004FF000000FBCBDE810400BF1010BBBF144
:1019F000010F08BF5FEA170722BF12F1010211F1C0
:101A000001014FF0004143F1000300F0004043EAC0
:101A100000007047F9D35708DAE746EA064613F1A3
:101A2000400F4FEA16461FDD13F1200FDFBF1643AC
:101A30000A46002120335B42C8D0C3F1200746EAA2
:101A4000064602FA07F74FEA164646EA0706C3F1CA
:101A5000200722FA03F201FA07F721FA03F14FF007
:101A6000000342EA0702B1E746EA020646EA0646F2
:101A70004FEA164646EA0106BCBF46EA0646360C61
:101A80004FF000034FF000024FF000019EE72DE9F8
:101A9000C048934630B491E8380007C831EA400C9A
:101AA00048BF34EA430C03D5FFF7F2FDFFF78CFF84
:101AB000F0BCBDE800882DE9C048934630B491E8F9
:101AC000380007C810F0804F08BF13F0804F03D1D3
:101AD00000F005F8FFF778FFF0BCBDE8008820F0C3
:101AE0007F4780EA030023F07F4C07EB0C03A3F54C
:101AF0007C5300F00040A3F1FE0392F0000F00F0D1
:101B0000B38095F0000F00F077802DE901494FEA8E
:101B100011404FEA144621EA004800FB06FC24EA83
:101B2000064708FB06F607FB08F800FB07F718EB6B
:101B300006484CEB164C4FEA124B18EB07484FEA9D
:101B400015464CEB174022EA0B4E0BFB06FC25EA30
:101B500006470EFB06F607FB0EFE0BFB07F71EEB18
:101B6000064E4CEB164C4FF000061EEB074E4CEBAE
:101B7000174B18EB0B0840F1000018EB0E0B58EB5D
:101B8000000840F100008F1A4FF000013CBFC9432C
:101B9000661B14BFB5EB040C00213CBFC943F61B08
:101BA0004FEA17444EEA8E0E27EA04454FEA1C47D7
:101BB00004FB07622CEA074C05FB07F70CFB05F654
:101BC00004FB0CFC16EB074642EB174216EB0C46E7
:101BD00042EB1C421BEB060658EB0202414146EA6F
:101BE0009E0601D5BDE80189B619524141EB0101BC
:101BF000A3F10103BDE801894FEA14454FEA1147FB
:101C000024EA054621EA074C05FB07F406FB07F723
:101C10000CFB06F105FB0CFC11EB074144EB1744F0
:101C20004FEA124711EB0C4144EB1C4422EA074CEB
:101C300005FB07F206FB07F70CFB06F605FB0CFCA1
:101C400016EB074642EB174216EB0C4642EB1C45DF
:101C50006A1854F1000148BF7047B619524141EB70
:101C60000101A3F10103704795F0000F37D04FEA4F
:101C700011424FEA144721EA024624EA074C02FBCC
:101C800007F106FB07F70CFB06F402FB0CFC14EB58
:101C9000074441EB17414FEA154714EB0C4441EB65
:101CA0001C4125EA074C02FB07F506FB07F70CFB76
:101CB00006F602FB0CFC16EB074645EB174516EB48
:101CC0000C4645EB1C42121951F1000148BF704708
:101CD000B619524141EB0101A3F1010370474FEAEC
:101CE00014454FEA114724EA054621EA074C05FB53
:101CF00007F106FB07F70CFB06F24FF0000605FBA9
:101D00000CFC12EB074241EB174112EB0C4251EB7A
:101D10001C4148BF7047921841EB0101A3F1010338
:101D20007047000070B5094D044600266868001B26
:101D300004D400F0FFF96868001B03E0002000F005
:101D4000F9F900206860304670BD0000AC08022040
:101D500030B583B004F088FD04F0D4FD04F0B8FC85
:101D600000F066FB00213A2004F080FF00213B20B8
:101D700004F07CFF0121292004F078FF01213820A4
:101D800004F074FF01212A2004F070FF01212F20AC
:101D900004F06CFF0121392004F068FF01210520C7
:101DA00004F064FF0121282004F060FF0BF092FF93
:101DB00000F040FB00F064FC40F648500BF038FFA8
:101DC0000CF056FC0CF0B6FC3C2000F0DFFD00F0FF
:101DD00068FD04B2A4F20970C7280AD200200CF0F2
:101DE0003DF87348FEF7BCFA72A02146FEF7B8FA38
:101DF0000CE0B4F5FA6F09DB00200CF020F879480C
:101E00001024FEF7ADFA03B0204630BD00F01AFDF5
:101E100080B228284FF000000CD90CF010F885B2E1
:101E200000F010FD84B270A02146FEF799FA282C2C
:101E3000F6D802E00CF012F885B2002D40F0A78031
:101E400000200CF00BF885B2002468460BF06AFF06
:101E500000996FA0FEF784FA4FF4FA700EF03CF888
:101E6000641C052CF1DB002401A80BF0B7FE0199DE
:101E70006CA0FEF775FA4FF4FA700EF02DF8641CA2
:101E8000052CF1DB0198B0F5486F02D80BF046FF46
:101E90001225009841F26F71884202D80BF03EFF84
:101EA0001225DDE9002165A0FEF75AFA002D6ED15A
:101EB0000BF0E4FF0CF002F90CF09EF8002000F0AB
:101EC00039F905042D0C62D100208DF8080030206E
:101ED00002A904F01DFE9DF8081062A0FEF740FA6A
:101EE0009DF80800012816D0012004F0A3FB00246F
:101EF0001421092004F0BAFB014661A0FEF730FA74
:101F000064200DF0E9FF641C052CF1DB002D08BFF7
:101F100000243CD107E00BF001FF9DF808105DA004
:101F2000FEF71EFA33E000F08DFC014665A0FEF7D7
:101F300017FA4FF496700DF0CFFF641C322CF2DBD1
:101F40000CF04CF885B2002400F07CFC014663A044
:101F5000FEF706FA4FF496700DF0BEFF641C322CAB
:101F6000F2DB64200DF0B8FF012004F063FB0024D5
:101F70001421092004F07AFB01465EA0FEF7F0F977
:101F800064200DF0A9FF641C052CF1DB55B10BF0AA
:101F9000C5FE00200BF053FF5BA0FEF7E1F903B094
:101FA000102030BD00200BF03BFF03B080B230BDED
:101FB000D0C507085468652041414120736F757290
:101FC000636520686173206265656E20696E2075A7
:101FD000736520666F7220256420686F7572730DBB
:101FE0000A00000034C60708445331383231205407
:101FF000656D706572617475726520697320256402
:102000002C20746F6F2068696768200D0A0000003B
:1020100066616E5F72706D20A3BA256421200D0A7F
:102020000000000020626C6F77657266616E5F72FF
:10203000706D3A20256421200D0A000020626C6F2B
:1020400077657266616E5F72706D3A202564212C2F
:102050002066616E5F72706D20A3BA2564210D0A3F
:10206000000000004C475F44544B54315F73656E71
:10207000736F7220A3BA256421200D0A00000000AE
:10208000616463785F636C6F7365203A256C6420CC
:102090000D0A00004552524F525F4C475F4E6F741D
:1020A0005F496E736572742C204C475F44544B54E7
:1020B000315F73656E736F7220A3BA256421200DA2
:1020C0000A0000005468652074656D706572617463
:1020D0007572653A25642E0D0A000000546865206B
:1020E00074656D7065726174757265323A25642E1F
:1020F0000D0A0000616463785F6F70656E203A2599
:102100006C64200D0A0000004552524F525F496E28
:10211000697469616C697A65642048616C6F4469AF
:1021200073706C61792069732052656421200D0AF7
:102130000000000070B50446B04800252146446008
:10214000AF48FEF70DF9652C80F05181DFE804F00F
:1021500080333537393B3D3F41434547494B4D4F30
:1021600051535557595B5D5F61636567696B6D6F6F
:1021700071737577797B7D7F81838587898B8D8F5F
:10218000919396999C9FA2A5A8ABAEB1B4B7BABDE6
:10219000C0C3C6C9CCEFF2F5F8FBFEE8E7E6E5E41C
:1021A000E3E2E1E0DFDEDDDCDBDAD9D8D7D6D5D477
:1021B000D3D2D1D0CF0017241AE1212418E127244B
:1021C00016E1312414E1462412E1532410E1622483
:1021D0000EE16B240CE176240AE17E2408E18824D8
:1021E00006E18C2404E1932402E19A2400E19E2478
:1021F000FEE0A624FCE0AA24FAE0AE24F8E0B22433
:10220000F6E0B724F4E0BB24F2E0BE24F0E0C324FF
:10221000EEE0C624ECE0CB24EAE0CD24E8E0CF24D5
:10222000E6E0D324E4E0D524E2E0D824E0E0DC24B6
:10223000DEE0DE24DCE0E024DAE0E324D8E0E7249A
:10224000D6E0E924D4E0EA24D2E0EC24D0E0EE2485
:10225000CEE0F024CCE0F224CAE0F424C8E0F52477
:10226000C6E0F724C4E0FA24C2E0FC24C0E0FE2467
:10227000BEE0FF24BCE040F20114B9E04FF48174E9
:10228000B6E04FF48274B3E04FF48374B0E04FF4DF
:102290008474ADE04FF48574AAE040F20B14A7E01B
:1022A00040F20D14A4E04FF48774A1E040F20F1443
:1022B0009EE04FF488749BE04FF4897498E040F2FC
:1022C000131495E040F2151492E04FF48B748FE0F4
:1022D00040F217148CE040F2191489E04FF48D7429
:1022E00086E04FF48E7483E040F21D1480E07BE0C2
:1022F00077E073E06FE06BE067E063E05FE05BE096
:1023000057E053E04FE04BE047E043E03FE03BE085
:1023100037E033E02FE02BE027E023E01FE01BE075
:1023200017E013E00FE00BE007E003E0FFE74FF4F6
:102330008F745DE04FF490745AE040F2211457E03E
:102340004FF4917454E040F2231451E04FF492742E
:102350004EE04FF493744BE040F2271448E04FF402
:10236000947445E04FF4957442E040F22B143FE042
:1023700040F22D143CE040F22F1439E04FF49874F1
:1023800036E040F2311433E040F2331430E04FF4E1
:102390009A742DE040F235142AE04FF49B7427E044
:1023A00040F2371424E04FF49C7421E040F23914D9
:1023B0001EE040F23B141BE04FF49E7418E04FF413
:1023C0009F7415E040F23F1412E040F241140FE018
:1023D0004FF4A2740CE04FF4A37409E04FF4A4741A
:1023E00006E040F24B1403E040F24D1400E01425E7
:1023F00020460BF083FE284670BD0000AC0802208A
:102400008CC5070870B5094D04460026686820444D
:10241000642804DCFFF78EFE6868204403E0642033
:10242000FFF788FE64206860304670BDAC0802206B
:1024300004F0D8B830B585B0144D0024124800948B
:102440000194029403942860D720C5E901044FF653
:10245000FF70C5E90304284603F048FB01206946E4
:102460000022CDE900400820CDE90240284603F0D3
:1024700091FA0021284603F091FB2868C16841F0D9
:102480000101C16005B030BD00400140B80E02201E
:10249000FEE700004DF804ED0E480A2200218DB041
:1024A00001F02AF90098ADF824000398002818BF1D
:1024B00001208DF82600049805A98DF82700024612
:1024C0000AA8FEF71EFA044809A90DF09BFB0DB0FF
:1024D0005DF804FBB40D02200005022030B52F4842
:1024E00091B0016841F000710160006800F0007077
:1024F0000F902B48016841F001010160006801253F
:102500000AA900F001000F904FF4C0500A90022079
:102510000B90CDE90C5009200E90224801F0EAFB07
:1025200002221420114601F0F5FE142001F0E5FE10
:102530001E4800241C49016000F14001016300F1C4
:102540005C018461C46141634FF42021C0E9084506
:102550008462C4628460C0E90341C900416106210C
:10256000416000F0EDFF18B1014611A0FDF7F8FE43
:102570000E200394CDE9064504946946CDE9085040
:1025800005940A4800940194029400F04FFF074814
:10259000002101F059F911B030BD0000403802406F
:1025A000303802400000024000640040B40D0220B8
:1025B00048414C5F43414E5F496E697420666169D2
:1025C0006C65312C72746E203D202564200D0A004C
:1025D00070B4BFF34F8FBFF36F8F1A4900200860AC
:1025E000194D296841F400312960BFF34F8FBFF3C3
:1025F0006F8F16490860BFF34F8F081F006843F6BE
:10260000FF76134AC0F34E3CC0F3C90406EA4C11EE
:10261000204641EA80731360401EFAD2BCF1010CDF
:10262000F4D2BFF34F8F286840F480302860BFF3A6
:102630004F8FBFF36F8F0748016841F004010160BD
:1026400070BC704750EF00E014ED00E084ED00E056
:1026500060EF00E09CEF00E0D0F8F0214FF0FF3396
:10266000D0F8F4C152F821202CF811300121C2F326
:102670000742831883F804121146D0F80032184735
:1026800030B585B0144D0024124800940194029492
:1026900003942860D720C5E901044FF6FF70C5E90F
:1026A0000304284603F022FA012069460422CDE9FA
:1026B00000400820CDE90240284603F06BF90421D0
:1026C000284603F06BFA2868C16841F00101C16037
:1026D00005B030BD00400140B80E0220002808BF00
:1026E00070472DE9F0074FF0FF08DDE9074C099F1F
:1026F0000E78ACEB02056DB2002DCEBF06FA05F5E3
:102700006D4226FA05F505F0FF09CCBFCCF10805AE
:10271000C2F10805EDB2854288BF05460CEB0506FF
:10272000CCF1080C08FA06FA28FA0CFC4AEA0C0C60
:1027300094F800A029EA0C092A440AEA0C0CD2B247
:10274000072A4CEA090C84F800C007D90022002BA4
:1027500014BF4FF0FF3C4FF0010C614406F0FF0C3A
:10276000BCF1070F07D9002F4FF0000C14BF4FF03A
:10277000FF3601263444401B10F0FF00B8D1BDE8FD
:10278000F007704770B51F4D0024286820F0300016
:1027900028602868286010E0601CC4B21AA0214696
:1027A000FDF7DEFD0421284601F0BCFB01461BA01D
:1027B000FDF7D6FD01200DF0B5FB0421284601F000
:1027C000B1FB20B1C82C38BF002418D207E0C82CB8
:1027D000E2D314E0601CC4B201200DF0A3FB04217D
:1027E000284601F09FFB002818BFF02CF2D311A05F
:1027F0002146FDF7B5FDF02C3CBF002070BD012047
:1028000070BD0000001002407265747279232323AA
:10281000203D2025642021200D0A0000445331383A
:102820004232315F44515F494E203D2025642021D2
:10283000200D0A007265747279203D2025642E2EC9
:102840002E00000010B500F081F8FFF79BFFEE208E
:1028500000F0C4F800F07AF8FFF794FFAC2000F025
:10286000BDF800F037F800F071F8FFF78BFFAA20F1
:1028700000F0B4F800F02EF8044600F067F8FFF717
:1028800081FFA02000F0AAF800F024F800F05EF824
:10289000FFF778FFAC2000F0A1F800F01BF820460D
:1028A00010BD10B500F052F8FFF76CFFA12000F04A
:1028B00095F800F00FF8044600F048F8FFF762FFC3
:1028C000A22000F08BF800F005F82102A1F54041AC
:1028D000084410BD2DE9F0411B4F002601243D4660
:1028E000386820F030003860386840F010003860F8
:1028F00000223846042101F01AFB02200DF012FBE1
:1029000001222846042101F012FB286820F0300043
:102910002860286828600C200DF004FB042128465C
:1029200001F000FB002814BF0125002532200DF026
:10293000F9FAE80140EA5600C6B2601CC4B2082C9D
:10294000CDD93046BDE8F0810010024010B50E4CE4
:10295000206820F030002060206840F010002060E7
:1029600000222046042101F0E2FA40F2EE200DF0B0
:10297000D9FA01222046042101F0D9FABDE810401D
:102980000F200DF0CFBA000000100240C11770B543
:1029900000EB1161C02202EB21220026D5B2C4B2A5
:1029A000FFF7D4FFFFF7EEFEEE2000F017F8FFF779
:1029B000CDFFFFF7E7FE012000F010F8284600F0F9
:1029C0000DF8FFF7C3FFFFF7DDFE022000F006F869
:1029D000204600F003F8304670BD000070B5194E77
:1029E0000546306820F030003060306840F010005C
:1029F000306001244FF0000215F0010F4FF0040188
:102A00004FEA550530460BD001F091FA02200DF047
:102A100089FA01223046042101F089FA3C200AE0BB
:102A200001F085FA3C200DF07DFA012230460421A8
:102A300001F07DFA02200DF075FA601CC4B2082C7A
:102A4000D8D970BD0010024070470000B0F1FF3FC0
:102A50000CD0084AB2F90010884204BF491E118008
:102A60000021054A00EB400002F830104FF0FF3023
:102A700070470000F8010220F80B0220012001F04D
:102A80002DB94FF4006010B501F028F94FF48050D3
:102A900001F024F94FF4005001F020F9BDE8104096
:102AA0004FF4004001F01AB9022001F017B90420D8
:102AB00001F014B9082001F011B9102001F00EB98D
:102AC000202010B501F00AF9802001F007F94FF439
:102AD000807001F003F9BDE810404FF4007001F080
:102AE000FDB8000041484DF804ED87B0016841F0A1
:102AF00002010160016801F002010591016841F0E5
:102B000004010160016801F004010591016841F0D0
:102B100040010160016801F040010591016841F048
:102B200080010160016801F080010591016841F4B4
:102B3000807101600068694600F4807005902C483F
:102B40000190022002904FF4C0500090294801F0FB
:102B5000D1F84FF40070009027486946019000209A
:102B60000290264801F0C6F8254901200290202055
:102B70000222CDE900010121062001F0CBFB062055
:102B800001F0BBFB03220121072001F0C3FB07205A
:102B900001F0B3FB04220121082001F0BBFB082057
:102BA00001F0ABFB02220920114601F0B3FB092022
:102BB00001F0A3FB062202210A2001F0ABFB0A2050
:102BC00001F09BFB04220221172001F0A3FB172038
:102BD00001F093FB05220221282001F09BFB282015
:102BE00001F08BFB07B05DF804FB000030380240B9
:102BF00000001110001802400000311000080240CF
:102C000000002110B3F5804F30B418BF6FF0704151
:102C100004D040F8221030BC0020704750F8223019
:102C2000DFF824C08D8903EA0C03D1E900C44CEA23
:102C3000041C8C688969240244EA05444CEA040CAB
:102C40004CEA01011943E4E70000F0CF70B4D1F879
:102C500000C050F82C201B4BD1E903561A40D1E993
:102C6000014335431C432C434D692C438D692C4350
:102C7000CD692C430D6A2C434D6A2C438D6A2C433D
:102C8000CD6A2C430D6B2C438D6B2C434D6B2C4329
:102C90002243082B08BF42F0400240F82C200A6B68
:102CA000B2F5801F05D10A684AB1026842F4801269
:102CB00002600A681AB10268496B1143016070BC76
:102CC000002070478004C0FF00EB820270B453689C
:102CD0004FF07E46D1E900C48D8903F040434CEAB1
:102CE000041C8C68240244EA05440D8A4CEA04045E
:102CF000DFF834C00CEB05552C430D7D06EB056564
:102D00002C438D692C4323435360026812F4801FC7
:102D100007D04268098A22F470020CEB015111437A
:102D2000416070BC002070470000F0FF4DF8044D7A
:102D3000D1E901320C681343D1E903C24CEA020223
:102D40001A434B6913438A69012C046843EA020C55
:102D5000CB690A6A496A08D04CEA03031A43114353
:102D60006FF30E04214301600BE024F4F8441A438E
:102D700021430A43416802606FF30E014CEA0101EE
:102D800041605DF8044B00207047426942EA41010E
:102D9000416100207047F8B514460546D1E90002AC
:102DA0006FF01F0310438A68C96803EB421242EABE
:102DB000412108430090286101F0BEF80646A86949
:102DC00010F0200F0ED0B4F1FF3F07D024B101F076
:102DD000B3F8801BA04201D90320F8BDA86910F008
:102DE000200FF0D10020F8BD2DE9F001D1F804C08A
:102DF0006FF00F050B682C015B1E05EB0C1C43EA02
:102E00000C03D1F808C04FEA0428270304EB0C2C6C
:102E100043EA0C050B8A2604CC68012A826808EB79
:102E2000034C8B8A097E07EB035306EB01610DD03F
:102E3000361306EB04342C4344EA0C0C4CEA03032F
:102E4000194302F070421143816012E0240322F41E
:102E50007042A4F58054234322F470021A43C368DD
:102E600045EA0C0C826003F070434CEA01011943FF
:102E7000C160BDE8F0010020704770B403464069AE
:102E8000002642889869B0F802C052B1002062451D
:102E90009CBF04255B6819D805EBC2041C5D032C9C
:102EA00002D870BCFF20704753F83240A46B2478DE
:102EB0008C4204BF70BC7047521C401C92B26245E9
:102EC000C0B2E9D9002E1CBF70BC7047FE2070BC98
:102ED00070472DE9F0410646D0F88C0200880028A2
:102EE0001CBF0024012722D0351995F804020F28B1
:102EF00017D030680078A04213D095F8940238B902
:102F0000D6F8882212B121463046904785F80472DF
:102F1000214695F89402401E85F8940230460DF043
:102F20000FFB601CC4B2802CDED3BDE8F081B6F983
:102F30008402FFF78BFDA6F88402BDE8F081000053
:102F400078B44FF0000CCDF800C090F83C20012A76
:102F500002BF022078BC7047012280F83C200A683A
:102F60000725534C0368092A1BD9DE680A3A02EB8D
:102F7000420205FA02F226EA0202DA600A68A24276
:102F800005D10268D3680D7A43EA056307E00A3A7F
:102F90008B6802EB420293400268D5682B43D360F2
:102FA00010E01E6902EB420205FA02F226EA020272
:102FB0001A610A788B6802EB420293400268156935
:102FC0002B4313614A681F25072A15D203685E6BDD
:102FD000521E02EB820205FA02F226EA02025A634C
:102FE0000A8893B20A79521E02EB82029340026869
:102FF000556B2B4353632BE003680D2A14D21E6BD1
:10300000D21F02EB820205FA02F226EA02021A63DA
:103010000A8893B20A79D21F02EB820293400268B7
:10302000156B2B43136313E0DE6A0D3A02EB820249
:1030300005FA02F226EA0202DA620A8893B20A79F3
:103040000D3A02EB820293400268D56A2B43D362A9
:10305000184B02689A4204BF0A68122A05D1D3F8B5
:10306000042342F48002C3F8042302689A421AD16E
:103070000A68A24218BF112A15D1D3F8042342F4DA
:103080000002C3F804230968A1420CD10A490B4A83
:103090000968B1FBF2F101EB81014900009102D016
:1030A000491E0091FCD180F83CC0002078BC7047DC
:1030B00012000010002001400000022040420F00DA
:1030C0000068C06C704700002DE9F04104004FF02B
:1030D000000504BF0120BDE8F0815A4F206C002696
:1030E00028B96664204684F83C6000F0B1F8206C92
:1030F00010F0100F18BF012504D0284684F83C605A
:10310000BDE8F081206C20F4885040F0020020647B
:103110004D48D0F8041321F44031C0F80413D0F81E
:10312000041362681143C0F804132068416821F455
:103130008071416020684168226941EA0221416052
:103140002068416821F04071416020684168A268B0
:10315000114341602068816821F40061816020682A
:103160008168E26811438160A06AB8422068816882
:1031700021F0706181602068816808BF21F04051B2
:103180000BD0A26A114381602068816821F0405110
:10319000816020688168E26A1143816020688168EB
:1031A00021F00201816020688168A26941EA420140
:1031B0008160206A00282068416808BF21F400610E
:1031C00013D041F4006141602068416821F46041FE
:1031D0004160206842684FF46043616A93FAA3F348
:1031E000491EB3FA83F39940114341602068C16AD4
:1031F00021F47001C1622068C16AA28B134B03EBFA
:1032000002521143C1622068816821F4007181601B
:1032100020688168226B41EA4221816020688168D0
:1032200021F48061816020688168626941EA8221BD
:1032300081606664206C20F0020040F00100206490
:103240005BE700000100000F002001400000F0FFDC
:1032500010484DF804ED87B0016841F480710160B9
:10326000006800F4807005900B48016841F002018D
:1032700001600068694600F002000590032001909B
:103280000020029002200090044800F033FD07B0B7
:103290005DF804FB4438024030380240000402402C
:1032A0002DE9F041044600680D4681684FF00007A3
:1032B00011F4806F1CBF806810F4807F08D0206CF0
:1032C00040F020002064012084F83C70BDE8F081CB
:1032D00000F032FE06462068006810F0020F16D19A
:1032E000B5F1FF3F0ED025B100F026FE801BA842AD
:1032F00008D9206C40F004002064032084F83C705E
:10330000BDE8F0812068006810F0020FE8D0216865
:103310006FF012000860206C40F400702064206898
:10332000816811F0405F04BFA169002913D1C16A0F
:1033300011F4700F1CBF806810F4806F0BD1206CEB
:1033400020F480702064206C10F4805F03D1206C26
:1033500040F0010020640020BDE8F08181B000222F
:10336000009290F83C10012902BF022001B0704782
:10337000012180F83C1001688B6813F0010F0FD118
:103380008B6843F001038B602549264B0968B1FB2C
:10339000F3F111EB4101009102D0491E0091FCD1E3
:1033A00001688B6813F0010F36D0036C23F0010322
:1033B00023F4C06343F4807303644B6813F4806F99
:1033C00005D0036C23F4005343F480530364036C6F
:1033D00013F4805F08BF426403D0436C23F00603FC
:1033E000436480F83C206FF022020A600E49D1F855
:1033F0000423006812F01F0F06D0884204BF8168C2
:1034000011F0405F04D007E0816811F0405F03D104
:10341000816841F080418160002001B07047000068
:103420000000022040420F00002001400A7D0123DD
:1034300003FA02F203684048834218BF3F48D0F8BD
:10344000003243F00103C0F80032D0F8003223F418
:103450007C53C0F80032D0F80032D1F824C043EADF
:103460000C23C0F80032D0F81C329343C0F81C3251
:10347000CB69D3B9D0F80C329343C0F80C32B1F811
:103480000CC04B686CF31F43D1F814C000EBCC0C9C
:10349000CCF84032B1F808C00B686CF31F43D1F888
:1034A00014C000EBCC0CCCF84432CB69012B1AD100
:1034B000D0F80C321343C0F80C32B1F800C04B689E
:1034C0006CF31F43D1F814C000EBCC0CCCF84032A5
:1034D000B1F808C0CB686CF31F43D1F814C000EBFF
:1034E000CC0CCCF844328B69002BD0F804320CBFE2
:1034F00093431343C0F804320B6923B9D0F8143254
:103500009343C0F814320B69012B04D1D0F8143264
:103510001343C0F81432096A012904D1D0F81C12EF
:103520001143C0F81C12D0F8001221F00101C0F8BC
:10353000001200207047000000340040006400408A
:103540002DE9F04104004FF0000704BF0120BDE861
:10355000F08194F83800002620B9204684F83960BC
:1035600000F09EF8022084F838002068016821F0FD
:10357000020101602068016841F00101016000F072
:10358000DBFC0546206840684FF0030810F0010F8F
:1035900009D100F0D1FC401B0A2862D8206840689D
:1035A00010F0010FF5D02068416811F0010F69D0CB
:1035B000A169012901680CBF41F0800121F080015F
:1035C0000160E0690128206801680CBF41F04001FA
:1035D00021F040010160206A0128206801680CBFC9
:1035E00041F0200121F020010160606A012820687B
:1035F00001680CBF41F0100121F010010160A06AC8
:103600000128206801680CBF41F0080121F0080181
:103610000160E06A0128206801680CBF41F00401E4
:1036200021F004010160D4E902010843D4E9041245
:10363000114308436168491E08432168C861206836
:10364000016821F00101016000F076FC0546206868
:10365000406810F0010F10D000F06EFC401B0A28EB
:1036600006D984F83880032084F83960BDE8F081F9
:103670002068406810F0010FEED12068406810F01B
:10368000010F00D037B1E663012084F83800002034
:10369000BDE8F081042084F838000120BDE8F08105
:1036A00012484DF804ED87B0016841F000710160E7
:1036B000006800F0007005900D48016841F00101BC
:1036C00001600068012100F0010005904FF4C05036
:1036D00000900220CDE90101039009200490694681
:1036E000044800F007FB07B05DF804FB40380240D7
:1036F00030380240000002402DE9F047044690F8BF
:10370000390016460D46012804BF0220BDE8F087A7
:10371000012784F8397094F8380012280CBF322041
:10372000222084F8380000F007FC81462068002D34
:103730000CBFC068006910F0030F4FF0000869D09B
:1037400021684FF4D87000EB0510095811F00402FD
:10375000616B8A602268616B125807BF520D0A6064
:10376000D2084A6021680858616B00F00200C86006
:103770004FF4DA70216800EB05100958626B01F014
:103780000F01116121680858616BC0F30720C861FF
:103790004FF4DC70216800EB05100958626B11755D
:1037A00021680958626B090A517521680958626BD2
:1037B000090C917521680858616B000EC8754FF4AB
:1037C000DE70216800EB05100958626B11762168E4
:1037D0000958626B090A517621680958626B090C15
:1037E000917621680858616B000EC8762020216808
:1037F000002D0CBFC860086194F83800322806BF5D
:10380000122084F8380084F8387084F83980002059
:10381000BDE8F087B6F1FF3F0DD02EB100F08CFB74
:10382000A0EB0900B04206D9032084F8380084F8E0
:103830003980BDE8F0872068002D0CBFC0680069A2
:1038400010F0030FE6D07BE790F83820012A18BF6C
:10385000122A24D190F83920012A20D0012280F8A0
:10386000392090F83820122A0CBF3222222280F808
:1038700038200023C3630268D2F814C04CF40F4C04
:10388000C2F814C080F839300029006841690CBFC3
:1038900041F0020141F01001416100207047022017
:1038A000704700002DE9F05F026804460E469068FC
:1038B00010F0806F01BF906810F0006F906810F0FA
:1038C000805F00F0D08094F83900012804BF022006
:1038D000BDE8F09F012084F8390094F838002228D0
:1038E0000CBF3220122084F83800906810F0806FEE
:1038F00018BF00257CD04FF4C07000EB05101158A4
:1039000001F001011150216B8A68002A77D02368E9
:1039100053F800C04CEA0202D1F80CC049684CEAE6
:10392000C10111431950216B0A7C02F00F020A6198
:1039300022684FF4C27101EB0511535823F00F03B5
:10394000535022685358D4F830C0DCF810C043EA12
:103950000C035350216B4FF4C47303EB05130A7D22
:10396000D1F8151042EA01212268D150216B4FF4A1
:10397000C67303EB05130A7ED1F8191042EA012140
:103980002268D15021680A5842F001020A5000F022
:10399000D3FADFF8E880002DDFF8E4900746DFF87F
:1039A000E4A04FF0000B35D02068012D806837D09F
:1039B0003AEA000040D0B6F1FF3F35D026B100F022
:1039C000BBFAC01BB0422FD9032084F838002EA1C7
:1039D00040F287223AA084F839B0FCF7C1FC0321F9
:1039E0003CA0FCF7BDFC0320BDE8F09F00E006E032
:1039F000906810F0006F14BF012502257BE7226854
:103A00001358D1F80CC0098843EA0C0343EA41512A
:103A1000115088E72068806838EA0000CBD10BE0BD
:103A200039EA0000C7D107E09DB12068012D806808
:103A300015D03AEA0000BED194F8380032280CBF05
:103A40002220012084F83800002084F839B0BDE835
:103A5000F09F2068806838EA0000ACD1ECE739EAD2
:103A60000000A8D1E8E7042084F8380001211DA057
:103A7000FCF776FC0120BDE8F09F00000300000485
:103A800000030008000003102E2E5C48414C4C49F6
:103A9000425C53544D3332463778785F48414C5F2F
:103AA0004472697665725C5372635C73746D333211
:103AB000663778785F68616C5F63616E2E630000C3
:103AC00031CEC4BCFE3A257320D0D0A3BA25640AF7
:103AD0000000000072657475726E20203D20256420
:103AE0002E0D0A003373746D3332663778785F6851
:103AF000616C5F63616E2E63206C696E653A363768
:103B0000322048414C5F4552524F52203D2025649F
:103B10002E0D0A0090F83510022903D0802141654E
:103B200001207047052180F835100068016821F0F8
:103B3000010101600020704770B584B00446002286
:103B40000A208DF800208DF804208DF808200CF054
:103B5000C3F9B4F5807F70D02CDC082C6FD013DC57
:103B6000012C04BF04B070BD022C59D0042C1CBF22
:103B700004B070BD01200AF0FFF80121222003F0FB
:103B800075F801212A2047E0102C63D0202C1CBF9F
:103B900004B070BD69461B2002F0BAFF1C2001A9C9
:103BA00002F0B6FF9DF80400C0F101010028C9B27F
:103BB0006CD185E0B4F5006F08BF64207CD01CDCBC
:103BC000B4F5007F1CBF04B070BD02A9282002F02C
:103BD0009FFF9DF808006FF001043C4E3C4D00280B
:103BE0005AD03068046128680461304601F08BFCCB
:103BF000284601F088FC04B070BDB4F5805F08BFB2
:103C0000002059D0B4F5005F1CBF04B070BD012086
:103C10000AF0B2F80021222003F028F804B070BDA9
:103C200000200AF0A9F80021222003F01FF800214B
:103C30002A2003F01BF804B070BD16E0FFE725480A
:103C4000214600F06FF9012804BF0120FEF7DAFBDE
:103C500004B070BD2048214600F064F9012804BF7B
:103C60000120FEF75FF804B070BD1B20694602F02A
:103C70004FFF1C2001A902F04BFF9DF80400C0F18A
:103C800001010028C9B208BF232001D04FF0FF3046
:103C90000AF0D4F904B070BD01200AF06DF8306864
:103CA000046128680461094801F014FC084801F027
:103CB00011FC04B070BDFFE7FEF73CFA04B070BD24
:103CC00023200AF0BBF904B070BD0000800B022075
:103CD000440B0220001C02400004024004490A6810
:103CE000024208BF704710B50860FFF725FF10BDFE
:103CF000143C01402DE9F84FDFF81C920022DFF858
:103D000014820F2709F1040A4FF0010E0B680EFA16
:103D100002F52B40AB4240F0F780D1F804C0BCF173
:103D2000020F18BFBCF1120F12D14FEAD20C00EBF8
:103D30008C0CDCF820605407E40E07FA04FB26EA3A
:103D40000B06D1F810B00BFA04F43443CCF8204041
:103D500006684FEA420C91F804B003240BF0030B01
:103D600004FA0CF4A6430BFA0CFB4BEA06060660B9
:103D70004E68012E18BF022E03D0112E18BF122E2E
:103D800011D18668D1F80CB0A6430BFA0CFB4BEAB4
:103D900006068660466826EA05050E79C6F3001613
:103DA000964035434560C56825EA04048D6805FAE8
:103DB0000CFC4CEA040CC0F80CC0D1F804C01CF098
:103DC000805F7CD0D8F800C04CF4804CC8F800C0AC
:103DD000D8F800C00CF4804CCDF800C022F0030CE1
:103DE0000CF1804505F59835D5F808C89407240FDF
:103DF00007FA04F62CEA0606A0F1804CBCF5003C5C
:103E000048D0A0F1804CBCF5013C08BF4FF0010C3C
:103E100040D0A0F1804CBCF5023C08BF4FF0020C32
:103E200038D0A0F1804CBCF5033C08BF4FF0030C28
:103E300030D0A0F1804CBCF5043C08BF4FF0040C1E
:103E400028D0A0F1804CBCF5053C08BF4FF0050C14
:103E500020D0A0F1804CBCF5063C08BF4FF0060C0A
:103E600018D0A0F1804CBCF5073C08BF4FF0070C00
:103E700010D0A0F1804CBCF5083C08BF4FF0080CF6
:103E800008D0A0F1804CBCF5093C0CBF4FF0090CE8
:103E90004FF00A0C0CFA04FC4CEA060CC5F808C8F2
:103EA000D9F800C04C682CEA030C14F4803F18BF0A
:103EB0004CEA030CC9F800C0DAF800C000E023E0C7
:103EC0004C682CEA030C14F4003F18BF4CEA030CB6
:103ED000CAF800C0114CD4F800C04D682CEA030C9D
:103EE00015F4801F18BF4CEA030CC4F800C00C4C3A
:103EF000D4F800C04D682CEA030C15F4001F18BF5D
:103F00004CEA030CC4F800C0521C102AFFF4FEAEA9
:103F1000BDE8F88F44380240003C0140083C0140B5
:103F20000C3C01400069084018BF01207047002A7E
:103F300008BF0904816170470148006870470000AC
:103F40000400022002480168491C0160704700001B
:103F500004000220074810B5016841F400710160B7
:103F6000052000F009FA0F2000F006F800F0C4F96F
:103F7000002010BD003C024010B5044607484FF435
:103F80007A720068B0FBF2F001F042FA002221469A
:103F9000501E00F0BFF9002010BD000000000220FC
:103FA0002DE9F05F044690F8A000012804BF02202C
:103FB000BDE8F09F0125022084F8A05084F8A100FC
:103FC00002EB820000EBC20004EB8003B1E8C11FEA
:103FD0003833A3E8C11F91E8C111203983E8C1112A
:103FE000204609F0B9FB2068456284F8A150002002
:103FF00084F8A000BDE8F09F002804BF01207047AE
:1040000070B5044690F8A100002520B9204684F838
:10401000A05000F077F8022084F8A10020688169A0
:1040200021F070418161D4E901010843D4E9031210
:1040300011430143206882691143816120688268CD
:104040002F490A408260A08A020420688368D4F85D
:1040500018C043EA0C031A4382602068C2680A4011
:10406000C260A08B02042068C368D4F820C043EA71
:104070000C031A43C260206802690A400261A08CE6
:10408000020420680369D4F828C043EA0C031A43E9
:1040900002612068426911404161A08D01042068DD
:1040A0004269236B1A431143416194F835000202BF
:1040B00094F8360001042068C36A03F07F43C362AA
:1040C0002068C36A114394F834C043EA0C031943CF
:1040D000C1622068416B41F0040141632068416B7B
:1040E00041F0020141632068816941F00101816171
:1040F000C4F8A450012084F8A100002070BD000085
:1041000000F800F0354810B586B0016841F08061D4
:104110000160006800F0806005903148016841F45A
:1041200000010160016801F400010591016841F09E
:1041300002010160016801F002010591016841F08E
:1041400020010160016801F020010591016841F042
:1041500040010160016801F040010591016841F0F2
:1041600080010160016801F080010591016841F45E
:104170008071016000680324694600F48070059036
:104180002020009001200190CDE902041548FFF79E
:10419000B1FD4FF48060009002200190002069463C
:1041A000CDE902040E2004900F48FFF7A3FD4FF461
:1041B0000C6000900D486946FFF79CFD4FF47E406F
:1041C00000900B486946FFF795FD40F2F7600090BC
:1041D00008486946FFF78EFD06B010BD443802401E
:1041E000303802400004024000140240001802402F
:1041F000001C02400020024070B5044690F8A00068
:104200008C46012804BF022070BD0125022084F8DD
:10421000A05084F8A10003EB830000EBC30004EB83
:10422000800000F13801C0F838C0006E6044C1E978
:104230000102C86A10441A46C860204609F08CFA88
:104240002068456284F8A150002084F8A00070BD69
:1042500070B5044690F8A0008C46012804BF0220E7
:1042600070BD0125022084F8A05084F8A10003EB62
:10427000830000EBC300002604EB800000F138014E
:104280002046C1E9006CC1E90262C1E90AC21A46CE
:1042900009F062FA2068456284F8A150002084F891
:1042A000A06070BD134A41781160111D03780A1D8A
:1042B000002B04BF002008601AD043680B60017B0C
:1042C000C37A090741EA0361837A41EAC341437B28
:1042D00041EA8341837B41EA4341C37B41EA034195
:1042E000437A41EA0321037A007841EA4301084313
:1042F0001060704798ED00E07047012200F01F0148
:1043000002FA01F14009800000F1E020C0F800113C
:1043100070470000174B4DF8044D1B68C3F3022390
:10432000C3F1070CBCF1040F88BF4FF0040C1C1D37
:10433000072C34BF0023DB1E012404FA0CFCACF173
:10434000010C0CEA0101994004FA03F35B1E1A40C8
:10435000114300284FEA0111B8BF00F00F0000F12F
:10436000E020B4BF80F8141D80F800145DF8044B01
:10437000704700000CED00E0074A00F007001168EC
:104380004FF6FF03194041EA002040F0FD7040F075
:1043900080601060704700000CED00E01C4838B5EC
:1043A000016841F08051016000681A4C00F08050B3
:1043B0000090206840F480302060FFF7BDFD054686
:1043C000606810F4803F09D1FFF7B6FD401BB0F5DF
:1043D0007A7F14D8606810F4803FF5D0206840F4EC
:1043E00000302060FFF7A8FD0546606810F4003F2C
:1043F0000BD1FFF7A1FD401BB0F57A7F01D9032057
:1044000038BD606810F4003FF3D0002038BD0000D4
:1044100040380240007000402DE9F84F0446007813
:10442000DFF82C944FF0000B10F0010F5D4610D018
:10443000D9F8000020F40000C9F80000D9F8000005
:10444000616B0843C9F80000606B002808BF4FF09B
:10445000010B2068FF4E10F4002F0FD03068E16B85
:1044600020F4401008433060E06BB0F5801F08BFB7
:104470004FF0010B02D0002808BF0125206810F47E
:10448000801F0FD03068216C20F44000084330605A
:10449000206CB0F5800F08BF4FF0010B02D0002850
:1044A00008BF0125206810F0807F18BF4FF0010B76
:1044B00010F0200F71D0E848016841F08051016090
:1044C0000068DFF8988300F080500090D8F8000072
:1044D00040F48070C8F80000FFF72EFD0746D8F8BA
:1044E000000010F4807F0AD1FFF726FDC01B64286E
:1044F00000F23083D8F8000010F4807FF4D0DFF8A9
:104500006083D8F8000010F4407031D0218E01F49F
:10451000407181422CD0D8F80000D8F8001020F467
:10452000407041F48031C8F80010D8F8001021F430
:104530008031C8F80010C8F80000D8F8000010F06A
:10454000010F15D0FFF7F8FC0746D8F8000010F06F
:10455000020F08BF41F2883A0AD1FFF7EDFCC01BF9
:10456000504500F2F782D8F8000010F0020FF4D0A6
:10457000206B4FF4407181431CBFD9F8000020F438
:10458000F81000F0EE80C9F80000D8F80000218E85
:10459000C1F30B010843C8F80000207810F0100F99
:1045A00007D0306820F0807030603068A16B08431D
:1045B0003060208810F4804FAA4805D00168626EF0
:1045C00021F4403111430160218811F4004F05D0DE
:1045D0000168A26E21F4402111430160216811F4A9
:1045E000803F05D00168E26E21F440111143016063
:1045F000216811F4003F05D00168226F21F44001C9
:1046000011430160217811F0400F05D00168626C00
:1046100021F0030111430160217811F0800F05D0D2
:104620000168A26C21F00C0111430160218811F492
:10463000807F05D00168E26C21F0300111430160F8
:10464000218811F4007F05D00168226D21F0C0019E
:1046500011430160218811F4806F05D00168626DFB
:1046600021F4407111430160218811F4006F05D0DD
:104670000168A26D21F4406111430160218811F4A9
:10468000805F05D00168E26D21F440511143016063
:10469000218811F4005F05D00168226E21F44041A9
:1046A00011430160216811F4800F05D00168A26FE9
:1046B00021F0806111430160216811F4001F0AD0CC
:1046C0000168E26F21F0006111430160E16FB1F117
:1046D000006F08BF0125216811F0080F18BF0125E0
:1046E00011F4802F05D00168626F21F040711143F1
:1046F0000160216811F4000F06D00168D4F8802011
:1047000021F0805111430160216811F0806F06D0C3
:104710000168D4F8842021F0005111430160206821
:1047200010F0006F06D03068D4F8881020F00070C8
:1047300008433060206810F0805F06D03068D4F8FD
:104740008C1020F0806008433060BBF1000F47F60A
:10475000C07A4FF440374FF070684FF0E0490ED107
:1047600009E0D9F8001020F4407020F0704021F4E6
:10477000F811084307E72068B0F1007F67D13A4895
:10478000006820F0806138480160FFF7D5FB834660
:104790003548006810F0006F0BD0FFF7CDFBA0EBA1
:1047A0000B00642800F2D6812F48006810F0006FDB
:1047B000F3D1207810F0010F2C482DD0616B59BB3C
:1047C000016897FAA7F201F44031B2FA82F2D140BF
:1047D000026898FAA8F39AFAAAFC02F07062B3FA97
:1047E00083F3BCFA8CFCDA40636803FA0CF397FAA3
:1047F000A7FCBCFA8CFC01FA0CF1194398FAA8F357
:10480000B3FA83F39A4099FAA9F30A43A168B3FA79
:1048100083F3994011430160216811F4002F03D004
:10482000E26BB2F5801F06D011F4801F49D0216CD5
:10483000B1F5800F45D1016897FAA7F201F4403134
:10484000B2FA82F2D140026802F0E04210E0A5E044
:10485000083802408C380240403802400070004066
:1048600070380240903802400038024084380240DC
:1048700099FAA9F39AFAAAFCB3FA83F3BCFA8CFC6E
:10488000DA40636803FA0CF397FAA7FCBCFA8CFCD5
:1048900001FA0CF198FAA8FC1943E368BCFA8CFC05
:1048A00003FA0CF3194399FAA9F3B3FA83F39A4084
:1048B000114301603168626A21F01F01521E1143E9
:1048C0003160216811F0807F2ED0016898FAA8F23B
:1048D00001F07061B2FA82F2D140026899FAA9F34C
:1048E0009AFAAAFC02F0E042B3FA83F3BCFA8CFC19
:1048F000DA40636897FAA7FBBBFA8BFB03FA0CF369
:10490000D4F810C00CFA0BFC43EA0C0398FAA8FC8C
:10491000BCFA8CFC01FA0CF1194399FAA9F3B3FA29
:1049200083F39A4011430160216811F0007F1CD08D
:104930009AFAAAF2616897FAA7F3B2FA82F2B3FA86
:1049400083F301FA02F22169994098FAA8F311431E
:10495000E268B3FA83F39A4099FAA9F31143A26883
:10496000B3FA83F39A40114301607F48006840F036
:1049700080617D480160FFF7DFFA83467A4800686E
:1049800010F0006F0AD1FFF7D7FAA0EB0B006428F4
:104990007DD87548006810F0006FF4D0002D77D0F6
:1049A000714D286820F080502860FFF7C5FA8346D3
:1049B000286810F0005F09D0FFF7BEFAA0EB0B00EB
:1049C000642864D8286810F0005FF5D12068DFF80B
:1049D0009CC110F4002F01D0E16B21B110F4801FB5
:1049E00038D0206CB0BBDCF8000097FAA7F100F4D7
:1049F0004030B1FA81F1C840DCF8001099FAA9F210
:104A00009AFAAAF301F0E041B2FA82F2B3FA83F320
:104A1000D14062699A4097FAA7F3B3FA83F39840BA
:104A200098FAA8F31043A269B3FA83F39A401043AB
:104A300099FAA9F2B2FA82F291400843CCF8000048
:104A400030686FF0FF02A16A20F4F85002EB0121F8
:104A500008433060206810F4001F34D0E06FB0F1DC
:104A6000006F30D1DCF8000098FAA8F100F0706017
:104A7000B1FA81F1C840DCF8001099FAA9F29AFA6B
:104A8000AAF301F0E041B2FA82F2D14001E061E024
:104A900067E06269B3FA83F397FAA7FB9A40236A47
:104AA000BBFA8BFB03FA0BF31A4398FAA8F3B3FA99
:104AB00083F39840104399FAA9F2B2FA82F2914036
:104AC0000843CCF80000207810F0080F32D0DCF852
:104AD000000098FAA8F100F07060B1FA81F1C840C6
:104AE000DCF8001097FAA7F29AFAAAF301F4403121
:104AF000B2FA82F2B3FA83F3D14062699A4097FA2C
:104B0000A7F3B3FA83F39940114398FAA8F2B2FAE3
:104B100082F2904099FAA9F20843E169B2FA82F26E
:104B200091400843CCF800003068E16A20F440303E
:104B300008433060286840F080502860FFF7FCF997
:104B40000446286810F0005F0BD1FFF7F5F9001B51
:104B5000642802D90320BDE8F88F286810F0005FB0
:104B6000F3D00020BDE8F88F0038024088380240BA
:104B70002DE9F047DFF8688104460D46D8F80000BB
:104B800000F00F00A8420CD2D8F8000020F00F006F
:104B90002843C8F80000D8F8000000F00F00A84231
:104BA00070D120784F4F10F0020F05D03868A168FF
:104BB00020F0F00008433860207810F0010F4ED04C
:104BC00060684949012820D00968022822D011F0E4
:104BD000020F57D0396821F0030108433860FFF70E
:104BE000ABF90646606841F28839012816D00228E0
:104BF000386800F00C0021D0F8B1FFF79DF9801B58
:104C0000484528D90320BDE8F087096811F4003F22
:104C1000E0D137E011F0007FDCD133E0386800F0FC
:104C20000C0004281BD0FFF787F9801B4845E9D802
:104C3000386800F00C000428F5D110E008280ED0E8
:104C4000FFF77AF9801B4845DCD8386800F00C0083
:104C50000828F5D103E0386810F00C0FCDD1D8F852
:104C6000000000F00F00A8420FD9D8F8000020F093
:104C70000F002843C8F80000D8F8000000F00F002B
:104C8000A84202D00120BDE8F087207810F0040F80
:104C900005D03868E16820F4E05008433860207897
:104CA00010F0080F06D03868216920F4604040EA0F
:104CB000C100386000F04EF83968F02292FAA2F292
:104CC00001F0F001B2FA82F2D140084A515CC840CA
:104CD000074908600F20FFF74FF90020BDE8F08773
:104CE000003C02400838024000380240A23A010865
:104CF0000000022008480949006809684FF4E052A2
:104D000092FAA2F201F4E051B2FA82F2D140044ADE
:104D1000515CC84070470000000002200838024083
:104D2000B23A010808480949006809684FF460422E
:104D300092FAA2F201F46041B2FA82F2D140044A3E
:104D4000515CC84070470000000002200838024053
:104D5000B23A01082148006810F00C01204808BF51
:104D60007047DFF880C0042904BF604670470829F7
:104D700018BF70474DF8044D1B4A1168136801F0C5
:104D80003F0113F4800F47F6C0730BD0BCFBF1F06A
:104D90001168194093FAA3F3B3FA83F3D94000FBE7
:104DA00001F00AE0B0FBF1F01168194093FAA3F3A7
:104DB000B3FA83F3D94000FB01F011684FF440329D
:104DC0005DF8044B92FAA2F201F44031B2FA82F299
:104DD000D140491C4900B0FBF1F07047083802404F
:104DE0000024F40040787D01043802402DE9F84F9A
:104DF000DFF8A88304460078A8F1040710F0010F3B
:104E0000A7F104055AD0D8F8000000F00C000428DF
:104E100009D0D8F8000000F00C0008280CD1386840
:104E200010F4800F08D0286810F4003F46D0606866
:104E3000002800F0AF8141E06068B0F5803F04BF1A
:104E4000286840F480300AD010B1B0F5A02F11D0FE
:104E5000286820F480302860286820F480202860AA
:104E60006068D0B1FFF768F80646286810F4003F84
:104E700008D023E0286840F480202860286840F4A7
:104E80008030ECE7FFF758F8801B642800F225819A
:104E9000286810F4003FF5D010E0FFF74DF8064603
:104EA000286810F4003F09D0FFF746F8801B6428FB
:104EB00000F21381286810F4003FF5D1207810F03B
:104EC000020F50D0D8F800004FF0F80910F00C0F86
:104ED00018D0D8F8000000F00C00082804BF38688B
:104EE00010F4800F0ED0E0680028286828D040F029
:104EF00001002860FFF720F80646286810F0020F2E
:104F000009D011E0286810F0020F1CBFE0680128EA
:104F10000AD000F03FB9FFF70FF8801B02287DD8B8
:104F2000286810F0020FF6D0286899FAA9F22169D2
:104F3000B2FA82F220F0F80091400843286012E0B3
:104F400020F001002860FEF7F7FF0646286810F001
:104F5000020F08D0FEF7F0FF801B02285ED82868F9
:104F600010F0020FF6D1207810F0080F33D0DFF8E0
:104F7000309260690028D9F8000016D040F0010096
:104F8000C9F80000FEF7D8FF0646D9F8000010F077
:104F9000020F20D1FEF7D0FF801B02283ED8D9F89F
:104FA000000010F0020FF5D015E020F00100C9F864
:104FB0000000FEF7C1FF0646D9F8000010F0020F0E
:104FC00009D0FEF7B9FF801B022827D8D9F80000C6
:104FD00010F0020FF5D1207810F0040F63D0714863
:104FE000016841F08051016000686F4E00F0805010
:104FF0000090306840F480703060FEF79DFF81467D
:10500000306810F4807F0BD1FEF796FFA0EB09000B
:10501000642862D8306810F4807F00E05DE0F3D04F
:10502000A068624E012804BF306840F0010009D03A
:1050300008B1052813D0306820F0010030603068D6
:1050400020F004003060A06841F2883AD0B1FEF749
:1050500073FF8146306810F0020F08D023E03068FB
:1050600040F004003060306840F00100EAE7FEF7ED
:1050700063FFA0EB090050452FD8306810F0020FF5
:10508000F5D010E0FEF758FF8146306810F0020FAF
:1050900009D0FEF751FFA0EB090050451DD830683C
:1050A00010F0020FF5D1A069E8B3D8F8001001F0B4
:1050B0000C0108296ED00228286820F08070286032
:1050C0000ED0FEF739FF0446286810F0007F5ED04E
:1050D000FEF732FF001B022855D90320BDE8F88FE8
:1050E000FEF72AFF0646286810F0007F08D0FEF77A
:1050F00023FF801B0228F0D8286810F0007FF6D12B
:10510000D4E9070147F6C0724FF0FF3392FAA2F2DA
:105110000843616AB2FA82F29140A26A03EB52023A
:105120004FF4403300E032E093FAA3F3B3FA83F391
:105130009A4011434FF070620843E16A92FAA2F27A
:10514000B2FA82F291404FF0E0420843216B92FAAA
:10515000A2F2B2FA82F2914008433860286840F027
:1051600080702860FEF7E8FE0446286810F0007F93
:105170000DD1FEF7E1FE001B0228AED8286810F022
:10518000007FF6D003E0286810F0007FA0D1002057
:10519000BDE8F88F0120BDE8F88F00000838024014
:1051A00074380240403802400070004070380240BD
:1051B000002804BF0120704770B5044690F82C0009
:1051C0000D4628B9002084F82D00204600F012F882
:1051D000022084F82C002068211DFDF7A7FDD4E9EA
:1051E00000022946FDF700FE012084F82C00002073
:1051F00070BD000030484DF804ED87B0016841F003
:1052000001010160006800F0010005902B48016871
:1052100041F004010160016801F004010591016899
:1052200041F008010160016801F008010591016881
:1052300041F010010160016801F010010591016861
:1052400041F020010160016801F020010591016831
:1052500041F0400101600068694600F0400005909F
:105260000D20009002200190012002900320039065
:105270000C2004901248FEF73DFD4CF203700090A4
:1052800010486946FEF736FD4FF6837000900E48D1
:105290006946FEF72FFD4FF63F0000900B48694628
:1052A000FEF728FD48F23710009009486946FEF7DE
:1052B00021FD07B05DF804FB383802403038024069
:1052C00000080240000C024000100240001402409E
:1052D0000018024010B5044690F82C00022808BFC0
:1052E00010BD022084F82C002068FDF74EFD01203F
:1052F00084F82C00002010BD70B5044690F82C00F6
:105300000D46022808BF70BD022084F82C002068DA
:10531000FDF741FD286802280CBF0520012084F814
:105320002C00002070BD002804BF0120704770B51C
:10533000044690F8450015460E4628B9002084F82A
:105340004400204600F01AF8206804F10801FDF737
:105350007DFCA26831462068FDF7B6FCE36A294669
:10536000D4E90102FDF74EFCA168206850F8212025
:1053700042F0010240F82120002070BD1A484DF88B
:1053800004ED87B0016841F001010160006800F0A0
:10539000010005901548016841F0080101600168AD
:1053A00001F008010591016841F0100101600068F9
:1053B000694600F0100005904EF2B3700090022094
:1053C000019001200290032003900C2004900848D3
:1053D000FEF790FC4FF68070009006486946FEF795
:1053E00089FC07B05DF804FB3838024030380240D1
:1053F000000C0240001002404FF0E0210428086930
:105400000CBF40F0040020F0040008617047000069
:10541000401EB0F1807F24BF012070474FF0E02193
:105420004861F020044A82F8140D002088610720AA
:1054300008610020704700000FE000E070477047EF
:1054400090F83820012A04BF022070474DF8044D1F
:10545000012280F8382003685A68D3F808C0A3F105
:105460008044B4F580341CBFA3F18044B4F5823489
:1054700003D14C6822F4700222430C68896822F040
:1054800070022CF0800C22435A6041EA0C01026841
:105490009160002180F8381008465DF8044B704791
:1054A000002804BF0120704710B5044690F8390069
:1054B000002804BF204600F00CF8022084F83900D0
:1054C0002068211D09F0B0F9012084F8390000207E
:1054D00010BD7047022180F8391001680A6842F057
:1054E00001020A60012180F839100020704701682C
:1054F000CA6842F00102CA600068016841F0010117
:10550000016000207047022180F8391001680A6AA2
:1055100041F211131A4207D10A6A9B101A4203D1B1
:105520000A6822F001020A60012180F83910002087
:10553000704790F83820012A0DBF0220012380F81F
:105540003830704730B4022280F839200268D2F82F
:1055500008C02CF0770C2CF4803C2CF47F4CC2F863
:1055600008C00A68502A47D00CDC202A7CD004DC12
:10557000002A7AD0102A79D0B7E0302A77D0402A92
:1055800077D0B2E0602A53D0702A0DD0B2F5805F98
:1055900003D0B2F5005F1DD0A7E001688A6822F051
:1055A000070222F4803241E00268D1F804C08C681E
:1055B000C96895684CEA0121214325F47F452943B8
:1055C000916001688A6822F0770222F4803242F00A
:1055D00077022BE00268D1F804C08C68C96895682E
:1055E0004CEA0121214325F47F452943916001685C
:1055F0008A6842F4804219E00268D1F804C0CC689D
:10560000116A156A25F001051562956921F00A01F4
:1056100041EA0C0125F0F00545EA04149461116299
:1056200001688A6822F0700242F057028A605CE0EA
:105630000268D1F804C0CC68116A21F0100111622F
:105640009569116A25F4704521F0A00145EA0434FA
:10565000946141EA0C11116201688A6822F07002BB
:1056600042F067028A6040E030E01FE026E035E06B
:10567000FFE70268D1F804C0C968146A156A25F00A
:1056800001051562956924F00A0444EA0C0C25F022
:10569000F00545EA01119161C2F820C001688A68ED
:1056A00022F0700242F047028A601EE001688A68B8
:1056B00022F0700242F007028A6016E001688A68F0
:1056C00022F0700242F017028A600EE001688A68D8
:1056D00022F0700242F027028A6006E001688A68C0
:1056E00022F0700242F037028A6080F839300021DF
:1056F00080F83810084630BC7047002804BF0120ED
:10570000704770B5044690F839000D4628B900205E
:1057100084F83800204600F049F8022084F8390067
:105720002068816821F0070121F4803181602068C0
:10573000211D09F079F8206883688169026AD5F82B
:1057400000C021F00301AE6921F440714CEA03036B
:10575000D5F808C022F0AA0241EA0621EE694CEA17
:105760000101D5F80CC021F0FC0121F47C4141EA93
:1057700006212E6A4CEA0101D5F810C04FEA0C1C34
:105780004CEA063C4CEA0101D5F804C06D6983601F
:1057900042EA05124CEA0202206881612068026236
:1057A000012084F83900002070BD00004DF804EDA0
:1057B00087B0002100910191029103910491016849
:1057C000A1F18040B0F540601CBF07B05DF804FB5C
:1057D0001548016841F080010160006800F0800018
:1057E00005901248016841F008010160006801213C
:1057F00000F0080005904FF4406000900220CDE9D1
:1058000001010321CDE9031009486946FEF772FA48
:10581000032232201146FEF77DFD3220FEF76DFD9A
:1058200007B05DF804FB0000303802404038024009
:10583000001C024010B504460068002908BF012280
:1058400012D004294FF001020ED0002109F04EF8C9
:1058500020680122042109F049F82068016841F01C
:1058600001010160002010BD09F040F8F5E70000DB
:105870002DE9F05F454F044600680026444D4FF087
:105880004008B84241F2111940F2444A01BF217E5A
:105890000129697811F0800F35D111F0400F4FF6D2
:1058A000F57B10D041F0800068700021204600F0A8
:1058B00017FCA8802068016A01EA0B0101622068D8
:1058C000016A01621FE0AE8085F80180016A11EA79
:1058D000090F04BF016A11EA0A0F03D1016821F020
:1058E00001010160206846622068016A01EA0B013B
:1058F00001622068016A41F00201016220680168CA
:1059000041F0010101602068B84201BF217E0229F7
:10591000297811F0800F18BFBDE8F09F11F0400FFB
:105920004FF65F7710D041F08000287004212046A8
:1059300000F0D6FB68802068016A39400162206867
:10594000016A0162BDE8F09F6E8085F80080016AFF
:1059500011EA090F04BF016A11EA0A0F03D10168B5
:1059600021F001010160206846622068016A394027
:1059700001622068016A41F020010162206801682B
:1059800041F001010160BDE8F09F000000400140CE
:10599000A40802202DE9F041044690F838000D4695
:1059A000012804BF0220BDE8F0810126022084F80E
:1059B000386084F83900002A37D0042A4FF4704741
:1059C00043D02068082A6CD0D5E90032E968D0F8C5
:1059D00020C02CF4805CC0F820C0D0F81C80D0F827
:1059E00020C007EA013128F4407848EA022222F474
:1059F00070421143C1612CF420424FF4204C0CEA58
:105A000003331A4302622068C16921F44061C16115
:105A10002068C169AA6841EA0221C16184F839603D
:105A2000002084F83800BDE8F081EB682068D5E9F3
:105A3000001209F03AF82068816921F00C018161B7
:105A400020688169AA68114329E02068D5E90032FD
:105A5000E968D0F820C02CF0100CC0F820C0D0F8B5
:105A60001880D0F820C007EA013128F4407848EACD
:105A7000022222F47042114381612CF0A0024FF007
:105A8000A00C0CEA03131A4302622068816921F416
:105A90004061816120688169AA6841EA02218161CF
:105AA000BCE7D5E900C1EB68026A22F480720262A9
:105AB000C769026A27F003073943F02721F0F00194
:105AC00007EA03131943C1614FF4206322F42062F3
:105AD00003EA0C231A4302622068C16921F00C0119
